:0400000077EF00F0A6
:100008004182FACF2DF0FBCF2EF0E9CF2FF0EACFC7
:1000180030F0E1CF31F0E2CF32F0D9CF33F0DACFA0
:1000280034F0F3CF35F0F4CF36F0F6CF37F0F7CF22
:1000380038F0F8CF39F0F5CF3AF041C03BF042C084
:100048003CF043C03DF044C03EF0A1AC03D0A19CBD
:100058002EEC05F0B8A005D0B8905AEC06F00F01C8
:1000680004859EA212D09E92074A082A08BE0CD088
:10007800B80E075C0B0E0858D8A006D00B0E086EF9
:10008800B80E076ECA9401D0CA847DEC05F0F2A4BC
:1000980004D0F29441EC02F0D59E3EC044F03DC03D
:1000A80043F03CC042F03BC041F03AC0F5FF39C0D4
:1000B800F8FF38C0F7FF37C0F6FF36C0F4FF35C089
:1000C800F3FF34C0DAFF33C0D9FF32C0E2FF31C0DA
:1000D800E1FF30C0EAFF2FC0E9FF2EC0FBFF2DC0B3
:1000E800FAFF419211001AEF07F08C80040E00010C
:1000F8007F6F0C0E00017E6F330EE82EFED77E2F29
:10010800FCD77F2FFAD700D08D8E040E00017F6FA9
:100118000C0E00017E6F330EE82EFED77E2FFCD723
:100128007F2FFAD700D08D8A040E00017F6F0C0E46
:1001380000017E6F330EE82EFED77E2FFCD77F2F6F
:10014800FAD700D08D88040E00017F6F0C0E0001D5
:100158007E6F330EE82EFED77E2FFCD77F2FFAD77F
:1001680000D09084040E00017F6F0C0E00017E6F9A
:10017800330EE82EFED77E2FFCD77F2FFAD700D07C
:100188009094040E00017F6F0C0E00017E6F330EF9
:10019800E82EFED77E2FFCD77F2FFAD700D08D9878
:1001A800040E00017F6F0C0E00017E6F330EE82EE7
:1001B800FED77E2FFCD77F2FFAD700D08D9A040E5A
:1001C80000017F6F0C0E00017E6F330EE82EFED704
:1001D8007E2FFCD77F2FFAD700D08D9E040E00010A
:1001E8007F6F0C0E00017E6F330EE82EFED77E2F38
:1001F800FCD77F2FFAD700D08C90040E00017F6FB8
:100208000C0E00017E6F330EE82EFED77E2FFCD732
:100218007F2FFAD700D0908E040E00017F6F0C0E4E
:1002280000017E6F330EE82EFED77E2FFCD77F2F7E
:10023800FAD700D08E84040E00017F6F0C0E0001E7
:100248007E6F330EE82EFED77E2FFCD77F2FFAD78E
:1002580000D08E8A040E00017F6F0C0E00017E6FA5
:10026800330EE82EFED77E2FFCD77F2FFAD700D08B
:100278008E8C040E00017F6F0C0E00017E6F330E12
:10028800E82EFED77E2FFCD77F2FFAD700D08F8895
:10029800040E00017F6F0C0E00017E6F330EE82EF6
:1002A800FED77E2FFCD77F2FFAD700D09080040E80
:1002B80000017F6F0C0E00017E6F330EE82EFED713
:1002C8007E2FFCD77F2FFAD700D0909E040E000116
:1002D8007F6F0C0E00017E6F330EE82EFED77E2F47
:1002E800FCD77F2FFAD700D08E94040E00017F6FC1
:1002F8000C0E00017E6F330EE82EFED77E2FFCD742
:100308007F2FFAD700D08E9A040E00017F6F0C0E53
:1003180000017E6F330EE82EFED77E2FFCD77F2F8D
:10032800FAD700D08E9C040E00017F6F0C0E0001DE
:100338007E6F330EE82EFED77E2FFCD77F2FFAD79D
:1003480000D08F98040E00017F6F0C0E00017E6FA5
:10035800330EE82EFED77E2FFCD77F2FFAD700D09A
:100368009090040E00017F6F0C0E00017E6F330E1B
:10037800E82EFED77E2FFCD77F2FFAD700D08C84AB
:100388008D90050E00017F6F0F0E00017E6FF10E3C
:10039800E82EFED77E2FFCD77F2FFAD78C948D803E
:1003A800050E00017F6F0F0E00017E6FF10EE82E23
:1003B800FED77E2FFCD77F2FFAD78C848D90050E21
:1003C80000017F6F0F0E00017E6FF10EE82EFED741
:1003D8007E2FFCD77F2FFAD78C948D80050E0001D5
:1003E8007F6F0F0E00017E6FF10EE82EFED77E2F75
:1003F800FCD77F2FFAD78C948D90050E00017F6F64
:100408000F0E00017E6FF10EE82EFED77E2FFCD76F
:100418007F2FFAD78C848D80040E00017F6F0C0E1D
:1004280000017E6F330EE82EFED77E2FFCD77F2F7C
:10043800FAD700D08C948D90040E00017F6F0C0EBB
:1004480000017E6F330EE82EFED77E2FFCD77F2F5C
:10045800FAD700D08C848D80040E00017F6F0C0EBB
:1004680000017E6F330EE82EFED77E2FFCD77F2F3C
:10047800FAD700D08C948D901200000174510001BD
:100488007511D8B423D0000E0001756F000E746F7B
:1004980083B81CD0010E151A0001A3510001A41144
:1004A800D8B40BD015501610D8A402D08C8601D021
:1004B8008C9615A005D08A8A04D08C9615B0FBD7E7
:1004C8008A9A15A002D08C8401D08C9400017251B4
:1004D80000017311D8B408D0000E0001736F000E2C
:1004E800726F84B6B1EC04F017501810D8B423D04A
:1004F800000E186E000E176E86B21DD01F4A202AF5
:1005080020BE0AD0205004E1030E1F5CD8A004D0FE
:10051800000E206E000E1F6E1F502010D8A403D0AE
:10052800908E8E9408D01F042010D8A402D0909EDC
:1005380001D0908E8E8400017C5100017D11D8B4C9
:1005480024D0000E00017D6F000E7C6F86B41DD094
:100558001D4A1E2A1EBE0AD01E5004E1030E1D5C51
:10056800D8A004D0000E1E6E000E1D6E1D501E1069
:10057800D8A403D08E8A8E9C08D01D041E10D8A43F
:1005880002D08E9A01D08E8A8E8C00017A51000199
:100598007B11D8B424D0000E00017B6F000E7A6F57
:1005A80084BC1DD01B4A1C2A1CBE0AD01C5004E166
:1005B800030E1B5CD8A004D0000E1C6E000E1B6E30
:1005C8001B501C10D8A403D08F88909008D01B040F
:1005D8001C10D8A402D08F9801D08F889080000179
:1005E800785100017911D8B41BD0000E0001796F41
:1005F800000E786F83B214D0134A142A14BE0AD09E
:10060800145004E1060E135CD8A004D0000E146E3A
:10061800000E136E13C021F014C022F0DEEC06F0B9
:100628000001765100017711D8B41200000E0001C4
:10063800776F000E766F86B61200010E191A19C070
:10064800A3F01AC0A4F019501A10D8B403D08D82A0
:10065800909212008D9290821200000E0001866F17
:10066800000E856F000E0001886F000E876F000E68
:1006780000018A6F000E896F000E00019A6F320E1A
:10068800996F000E0001966F320E956F000E0001F3
:10069800986F000E976F000E00018C6F010E8B6F24
:1006A800000E00018E6F000E8D6F000E0001906F1E
:1006B800010E8F6F000E0001926F010E916F000EF8
:1006C8000001946F010E936FBBEC07F07F0EDCEC1A
:1006D80007F013041410D8A40DD09BC009F09CC0D7
:1006E8000AF09DC00DF09EC00EF09FC00BF0A0C098
:1006F8000CF094D0000E00017F6F040E7E6F1BEC8F
:1007080004F07EC00DF07FC00EF00DC082F00EC068
:1007180083F0040E0001846F000183358333823334
:100728000001842FF9D782C00DF083C00EF0000EAF
:1007380000017F6F030E7E6F1BEC04F07EC00BF090
:100748007FC00CF00BC082F00CC083F0040E0001D7
:10075800846F00018335833382330001842FF9D7F6
:1007680082C00BF083C00CF0000E00017F6F0E0EEC
:100778007E6F1BEC04F07EC009F07FC00AF0000E0B
:1007880000017F6F080E7E6F1BEC04F07EC099F0AD
:100798007FC09AF099C082F09AC083F0050E0001DC
:1007A800846F00018335833382330001842FF9D7A6
:1007B80082C099F083C09AF095C082F096C083F009
:1007C8000001821F831F824B832B00019951000176
:1007D80082250001976F00019A51000183210001D1
:1007E800986F97C07EF098C07FF015EC08F07EC037
:1007F80097F07FC098F0000198BF10D00001985181
:1008080005E1020E0001975DD8A008D000019951BA
:10081800DCEC07F099C095F09AC096F001500210F0
:10082800D8A457D7000E026E010E016E52D70E01E2
:10083800865100017E19E00B7E190E01866FA00E0D
:1008480000D0E82EFDD7C18EC082A00E00D0E82EC1
:10085800FDD7C092C0A0FED7C19E00017E51000105
:100868007F11D8A405D0C2CF80F0C3CF81F070D05B
:1008780000017E0500017F11D8A405D048CE80F084
:1008880049CE81F065D0020E00017E1900017F116A
:10089800D8A405D04ACE80F04BCE81F059D0030EB3
:1008A80000017E1900017F11D8A405D04CCE80F03C
:1008B8004DCE81F04DD0040E00017E1900017F114C
:1008C800D8A405D04ECE80F04FCE81F041D0050E91
:1008D80000017E1900017F11D8A405D050CE80F008
:1008E80051CE81F035D0060E00017E1900017F112E
:1008F800D8A405D052CE80F053CE81F029D00E0E68
:1009080000017E1900017F11D8A405D062CE80F0C5
:1009180063CE81F01DD0080E00017E1900017F1101
:10092800D8A405D056CE80F057CE81F011D0090E4C
:1009380000017E1900017F11D8A405D058CE80F09F
:1009480059CE81F005D0000E0001816F000E806F36
:1009580080C07EF081C07FF01200000E2C6E000E69
:100968002B6E04BE05D0045014E10304D8B011D096
:10097800CA84000E0001606F000E616F000E626F86
:10098800000E636F000E066E000E056E034A042A01
:100998005CD0CA94000E00016F6F010E6E6F000EDE
:1009A800126E000E116E8D8004BE06D0045011E147
:1009B800020E035CD8B00DD007C0A1F008C0A2F0A9
:1009C80007C005F008C006F0034A042A71EC07F0D6
:1009D8003BD005C029F006C02AF0291E2A1E294A44
:1009E8002A2A075029242B6E08502A202C6E2BC047
:1009F80021F02CC022F02BEC08F021C02BF022C0F3
:100A08002CF02CBE0BD0F40E2B5C010E2C58D8A069
:100A180005D0000E046E010E036E16D00550072493
:100A2800216E06500820226E000E246E020E236EE0
:100A38009CEC06F021C0A1F022C0A2F007C005F08E
:100A480008C006F0034A042ACA84000E086E000E85
:100A5800076E1200000E246E000E236E03CF0FF0F7
:100A6800106A0F011AB1FDD7AC0E0F181010D8A4D8
:100A780005D001C06AF002C06BF033D0A10E0F1888
:100A88001010D8A405D00DC06AF00EC06BF029D0A4
:100A9800A50E0F181010D8A405D00BC06AF00CC012
:100AA8006BF01FD0A90E0F181010D8A41AD000018F
:100AB8006C5100016D11D8A404D00950236E246A2A
:100AC80009D00AC021F0226A21BE226821C023F081
:100AD80022C024F023C06AF024C06BF0010E00018C
:100AE8006C1B6AC003FF010E0F1A0F011989A19C24
:100AF8001200000E216ED1A208D0000E0001796FFD
:100B0800010E786F010E216ED192D1A408D0000E8B
:100B180000017D6F010E7C6F010E216ED194D1A66C
:100B280007D0000E186E010E176E010E216ED196B9
:100B3800D1A808D0000E0001756F010E746F010E68
:100B4800216ED198D1AA08D0000E0001736F010E52
:100B5800726F010E216ED19AD1AC08D0000E00013F
:100B68007B6F010E7A6F010E216ED19CD1AE08D039
:100B7800000E0001776F010E766F010E216ED19E77
:100B88002150D8B41200D58E12000E01E38F75964D
:100B98006692CD96B1960F0114970E0146999882E8
:100BA8000E01469B9884968C95820E01469D9886E8
:100BB800958896869690959496920E01459399926B
:100BC8009590969E969A96980E01459599940E0141
:100BD800479D97940E01459F999E0E014695979CB7
:100BE8000E014693979A0E014591999098980E0197
:100BF800469F948E9A889A8A94829480948C0E0147
:100C0800459B0E0145999786998A9988939A959656
:100C18008A8A8C969A809A82958E1200C19EC18487
:100C2800FC0EC116C098C09AC09CC09EC0943F0ECE
:100C38000E018D170E018D9B0E018D870E018B9F66
:100C48000E018B9B200E0E018A6F0E01899F0E01EB
:100C5800869186938695869786990E01869B869DB2
:100C6800869F0F01539F0F01389F0F01379F0E0179
:100C780047810E0147830E0147850E0147870E0104
:100C880047890E01478B0E0146870E01478F0E01DB
:100C980046810E01458D9280928292849286928A34
:100CA800978E9288998C98809484120000016E51D6
:100CB80000016F11D8B417D0114A122A3F50115CA5
:100CC8001250800A216E4050800A2158D8A0120084
:100CD800000E126E000E116E8D90000E00016F6FE7
:100CE800000E6E6F1200114A122A3FC021F040C058
:100CF80022F0211E221E214A222A0001A15121266A
:100D08000001A25122222150115C1250800A236E48
:100D18002250800A2358D8A01200000E126E000E2E
:100D2800116E8D80000E00016F6F010E6E6F120044
:100D3800000E266E24AE06D0236C241ED8B0242ABA
:100D4800010E266E22AE06D0216C221ED8B0222AB1
:100D5800010E261A000E286E000E276E235024104E
:100D6800D8B41CD0010E256E04D0D8902336243672
:100D7800252A24AEFAD7D890273628362350215C66
:100D880024502258D8A005D02350215E2450225A3E
:100D98002780D89024322332252EEDD72650D8B478
:100DA80004D0276C281ED8B0282A27C021F028C0D4
:100DB80022F0120021042210D8A406D08C808D9E27
:100DC8008D9A8D9890941200020E21182210D8A4A2
:100DD80006D08C908D8E8D9A8D9890941200030E6B
:100DE80021182210D8A406D08C908D9E8D8A8D98BB
:100DF80090941200040E21182210D8A406D08C90CA
:100E08008D9E8D9A8D8890941200050E21182210BF
:100E1800D8A406D08C908D9E8D9A8D9890841200BF
:100E28008C908D9E8D9A8D9890941200340EF66E4B
:100E3800110EF76E000EF86E00EE9BF010EE0AF041
:100E48000900F5CFEEFFE550E150FAE13E0EF66EEF
:100E5800110EF76E000EF86E0900F5CF3FF009008D
:100E6800F5CF40F000EE60F01E0EEE6AE806FDE1F8
:100E780000EE01F0200EEE6AE806FDE14190419295
:100E8800000131EF03F0D3505F0BD36E0E013451E4
:100E98000F0B9009346F0E013451F00B0A09346FAF
:100EA8000E013651F00B0809366F0E0133510F0B46
:100EB8005009336F0E0136510F0BA009366F0E0122
:100EC8003551F00B0609356F0E0135510F0B8009AE
:100ED800356FD3504009D36E120008BE0FD0B90E3B
:100EE800075C0B0E0858D8A009D0000E086E000E3B
:100EF800076E000E046E000E036E120008BE12008C
:100F0800DC0E075C050E0858D8A01200000E000180
:100F1800676F010E666F000E046E000E036E050EFD
:100F28000001A26FDC0EA16F12000F01199B958AB8
:100F3800958C0F011951F00B0909196FA00E0F01BB
:100F4800026FF20E0F01176F0F011951F00B06090E
:100F5800196F0F0119890F0118810F01189F0F01CF
:100F6800399B000E0F01036F0F01198B12003FEC24
:100F780008F06EEC08F08DEC08F085EC08F07AECDF
:100F880008F061EC08F099EC07F012EC06F047EC79
:100F980007F0C9EC05F094EC08F051EC08F079EC96
:100FA80000F051EC08F094EC08F0FDEC07F01200AA
:100FB80000017E6F5E0E00017F6FC68A0D0EE82E5F
:100FC800FED700F0C580C5B0FED79E967FC0C9FF8A
:100FD800C5BCFED79EA6FED79E967EC0C9FFC5BCDF
:100FE800FED79EA6FED7C584C5B4FED79E96C68AF0
:100FF8001200F28A9D809D82A082B780A08CF28622
:101008000F0155830F0155850F0155870F0155892C
:101018000F01558B0F01558D0F01558FF28CF28EF4
:10102800120000017FAF0ED07EC080F07FC081F03B
:101038000001801F811F804B812B80C07EF081C002
:101048007FF012007EC07EF07FC07FF0120022AEDB
:101058000DD021C023F022C024F0231E241E234AD1
:10106800242A23C021F024C022F0120021C021F03C
:1010780022C022F01200648A6550F80B0109656EDF
:10108800669ED350F80B0109D36ED338070BE806D8
:10109800D8A4FBD766BA1200FDD78D908C94909E89
:1010A8008E948E9A8E9C8F9890908D9290928C9020
:1010B8008D9E8D9A8D9890941200C69A94869488E5
:1010C8004F0EC86EC650F00B0809C66E000EC96EEA
:1010D800C68A1200D59ED58CD550CF0B1009D56E77
:1010E800D596D550F80B0609D56E12000F01049558
:1010F800030E0F0104130F010451870B0809046F35
:101108001200CA94030ECA12CA50870B0809CA6E85
:101118001200CD903F0ECD16300ECD12CD821200AA
:101128008A8A8C868D8290928C94120000008000AE
:081138008000F4010100050034
:107FF00080F607FE13F0FFF7DBFFFFFC01F0F8F25D
:00000001FF
