:0400000077EF00F0A6
:100008004182FACF2DF0FBCF2EF0E9CF2FF0EACFC7
:1000180030F0E1CF31F0E2CF32F0D9CF33F0DACFA0
:1000280034F0F3CF35F0F4CF36F0F6CF37F0F7CF22
:1000380038F0F8CF39F0F5CF3AF041C03BF042C084
:100048003CF043C03DF044C03EF0A1AC03D0A19CBD
:10005800E8EC07F0B8A005D0B89028EC07F00F013D
:1000680004859EA212D09E92054A062A06BE0CD08E
:10007800B80E055C0B0E0658D8A006D00B0E066EFF
:10008800B80E056ECA9401D0CA8455EC06F0F2A4E5
:1000980004D0F29407EC04F0D59E3EC044F03DC075
:1000A80043F03CC042F03BC041F03AC0F5FF39C0D4
:1000B800F8FF38C0F7FF37C0F6FF36C0F4FF35C089
:1000C800F3FF34C0DAFF33C0D9FF32C0E2FF31C0DA
:1000D800E1FF30C0EAFF2FC0E9FF2EC0FBFF2DC0B3
:1000E800FAFF419211003DEF08F08C80040E0001E8
:1000F800616F0C0E0001606F330EE82EFED7602F83
:10010800FCD7612FFAD700D08D8E040E0001616FE5
:100118000C0E0001606F330EE82EFED7602FFCD75F
:10012800612FFAD700D08D8A040E0001616F0C0E82
:100138000001606F330EE82EFED7602FFCD7612FC9
:10014800FAD700D08D88040E0001616F0C0E0001F3
:10015800606F330EE82EFED7602FFCD7612FFAD7D9
:1001680000D09084040E0001616F0C0E0001606FD6
:10017800330EE82EFED7602FFCD7612FFAD700D0B8
:100188009094040E0001616F0C0E0001606F330E35
:10019800E82EFED7602FFCD7612FFAD700D08D98B4
:1001A800040E0001616F0C0E0001606F330EE82E23
:1001B800FED7602FFCD7612FFAD700D08D9A040E96
:1001C8000001616F0C0E0001606F330EE82EFED740
:1001D800602FFCD7612FFAD700D08D9E040E000146
:1001E800616F0C0E0001606F330EE82EFED7602F92
:1001F800FCD7612FFAD700D08C90040E0001616FF4
:100208000C0E0001606F330EE82EFED7602FFCD76E
:10021800612FFAD700D0908E040E0001616F0C0E8A
:100228000001606F330EE82EFED7602FFCD7612FD8
:10023800FAD700D08E84040E0001616F0C0E000105
:10024800606F330EE82EFED7602FFCD7612FFAD7E8
:1002580000D08E8A040E0001616F0C0E0001606FE1
:10026800330EE82EFED7602FFCD7612FFAD700D0C7
:100278008E8C040E0001616F0C0E0001606F330E4E
:10028800E82EFED7602FFCD7612FFAD700D08F88D1
:10029800040E0001616F0C0E0001606F330EE82E32
:1002A800FED7602FFCD7612FFAD700D09080040EBC
:1002B8000001616F0C0E0001606F330EE82EFED74F
:1002C800602FFCD7612FFAD700D0909E040E000152
:1002D800616F0C0E0001606F330EE82EFED7602FA1
:1002E800FCD7612FFAD700D08E94040E0001616FFD
:1002F8000C0E0001606F330EE82EFED7602FFCD77E
:10030800612FFAD700D08E9A040E0001616F0C0E8F
:100318000001606F330EE82EFED7602FFCD7612FE7
:10032800FAD700D08E9C040E0001616F0C0E0001FC
:10033800606F330EE82EFED7602FFCD7612FFAD7F7
:1003480000D08F98040E0001616F0C0E0001606FE1
:10035800330EE82EFED7602FFCD7612FFAD700D0D6
:100368009090040E0001616F0C0E0001606F330E57
:10037800E82EFED7602FFCD7612FFAD700D08C84E7
:100388008D90050E0001616F0F0E0001606FF10E78
:10039800E82EFED7602FFCD7612FFAD78C948D807A
:1003A800050E0001616F0F0E0001606FF10EE82E5F
:1003B800FED7602FFCD7612FFAD78C848D90050E5D
:1003C8000001616F0F0E0001606FF10EE82EFED77D
:1003D800602FFCD7612FFAD78C948D80050E000111
:1003E800616F0F0E0001606FF10EE82EFED7602FCF
:1003F800FCD7612FFAD78C948D90050E0001616FA0
:100408000F0E0001606FF10EE82EFED7602FFCD7AB
:10041800612FFAD78C848D80040E0001616F0C0E59
:100428000001606F330EE82EFED7602FFCD7612FD6
:10043800FAD700D08C948D90040E0001616F0C0ED9
:100448000001606F330EE82EFED7602FFCD7612FB6
:10045800FAD700D08C848D80040E0001616F0C0ED9
:100468000001606F330EE82EFED7602FFCD7612F96
:10047800FAD700D08C948D901200000E0001696F9D
:10048800000E686F000E00016B6F000E6A6F000EA1
:100498000001736F000E726F000E00017B6F640E17
:1004A8007A6F000E0001756F000E746F000E000168
:1004B800776F000E766F000E0001796F010E786F6E
:1004C800000E00017D6F000E7C6F000E00016D6F45
:1004D800010E6C6F000E00016F6F010E6E6F000E43
:1004E8000001716F010E706F28EC09F010EC09F033
:1004F8000F01048500017C4B7D2BFCD7000E000109
:10050800616F0E0E606FAFEC04F060C07CF061C0EC
:100518007DF000017DBF0DD0E80E00017C5D030E6B
:1005280000017D59D8A005D0000E00017D6F010E95
:1005380044D000017DBF0DD0200E00017C5D030E6C
:1005480000017D59D8A005D0000E00017D6F020E74
:1005580034D000017DBF0DD0580E00017C5D020E25
:1005680000017D59D8A005D0000E00017D6F030E53
:1005780024D000017DBF0DD0900E00017C5D010EDE
:1005880000017D59D8A005D0000E00017D6F040E32
:1005980014D000017DBF0DD000017D5105E1C80ECA
:1005A80000017C5DD8A005D0000E00017D6F050E0E
:1005B80004D0000E00017D6F000E7C6F7CC060F0DF
:1005C8007DC061F09DEC06F099D700017A51B5EC39
:1005D80008F00001785100017A27000179510001E3
:1005E8007B2300017BBF08D000017B5110E17F0E07
:1005F80000017A5DD8B00BD000017BBF08D00001A4
:100608007B5113E1150E00017A5DD8B00ED078C089
:1006180060F079C061F0FF0E0001636F6269F5EC6C
:1006280008F060C078F061C079F0100E0001666FC4
:10063800940EE82EFED7662FFCD700F0C6D7000E22
:100648000001616F030E606FAFEC04F060C07AF0D8
:1006580061C07BF07AC066F07BC067F00001673547
:1006680067336633000167356733663300016735E2
:100678006733663366C07AF067C07BF074C066F093
:1006880075C067F00001661F671F664B672B000186
:100698007A51000166250001766F00017B51000147
:1006A80067210001776F000177BF08D000017751FB
:1006B80010E1030E0001765DD8B00BD0000177AFD2
:1006C80010D0FE0E0001765DFF0E00017759D8B0FC
:1006D80008D000017A51B5EC08F07AC074F07BC0FC
:1006E80075F0340E0001666FF10EE82EFED7662F06
:1006F800FCD700D0A4D7680E0001666FE40EE82E80
:10070800FED7662FFCD700F0000E0001606FAA0E1E
:100718000001616FA00E8EEC08F0850EE82EFED762
:1007280000F0000E0001606FA00EE3EC06F000017F
:10073800666F000166510001726F736B680E0001ED
:10074800666FE40EE82EFED7662FFCD700F0D3D7ED
:10075800000E0001616F060E606FAFEC04F060C020
:100768000BF061C00CF00BC066F00CC067F0000124
:10077800673567336633000167356733663366C0AC
:100788000BF067C00CF0000E0001616F050E606F82
:10079800AFEC04F060C009F061C00AF009C066F06F
:1007A8000AC067F0000167356733663300016735B3
:1007B8006733663366C009F067C00AF0000E0001AF
:1007C800616F040E606FAFEC04F060C007F061C0A9
:1007D80008F007C066F008C067F0000167356733A6
:1007E8006633000167356733663366C007F067C054
:1007F80008F0340E0001666FF10EE82EFED7662F62
:10080800FCD700D0A5D70001905100019111D8B4B0
:1008180013D0000E0001916F000E906F83B80CD0BA
:10082800010E1C1A1CA002D08C8601D08C961CA02C
:1008380002D08C8401D08C9400018E5100018F115C
:10084800D8B408D0000E00018F6F000E8E6F84B6EA
:1008580045EC05F019501A10D8B419D0000E1A6ECC
:10086800000E196E86B213D0202A020E206402D020
:10087800000E206E2050D8A403D0908E8E9407D0FE
:100888002004D8A402D0909E01D0908E8E84175058
:100898001810D8B419D0000E186E000E176E86B452
:1008A80013D01F2A020E1F6402D0000E1F6E1F50A5
:1008B800D8A403D08E8A8E9C07D01F04D8A402D057
:1008C8008E9A01D08E8A8E8C15501610D8B419D0F5
:1008D800000E166E000E156E84BC13D01E2A020E72
:1008E8001E6402D0000E1E6E1E50D8A403D08F883E
:1008F800909007D01E04D8A402D08F9801D08F887A
:10090800908013501410D8B411D0000E146E000E3D
:10091800136E83B20BD01B2A050E1B6402D0000E87
:100928001B6E1BC021F0226AACEC07F011501210AC
:10093800D8B41200000E126E000E116E86B61200A8
:100948001D50D8B403D08D82909202D08D9290829F
:10095800010E1D1A12000E01865100016019E00BEC
:1009680060190E01866FA00E00D0E82EFDD7C18E4B
:10097800C082A00E00D0E82EFDD7C092C0A0FED73E
:10098800C19E0001605100016111D8A405D0C2CFF9
:1009980062F0C3CF63F070D00001600500016111FF
:1009A800D8A405D048CE62F049CE63F065D0020ED7
:1009B8000001601900016111D8A405D04ACE62F087
:1009C8004BCE63F059D0030E00016019000161118C
:1009D800D8A405D04CCE62F04DCE63F04DD0040EB5
:1009E8000001601900016111D8A405D04ECE62F053
:1009F8004FCE63F041D0050E00016019000161116E
:100A0800D8A405D050CE62F051CE63F035D0060E92
:100A18000001601900016111D8A405D052CE62F01E
:100A280053CE63F029D00E0E000160190001611148
:100A3800D8A405D062CE62F063CE63F01DD0080E54
:100A48000001601900016111D8A405D056CE62F0EA
:100A580057CE63F011D0090E000160190001611131
:100A6800D8A405D058CE62F059CE63F005D0000E58
:100A78000001636F000E626F62C060F063C061F0D6
:100A88001200000E2C6E000E2B6E02BE05D0025016
:100A980014E10104D8B011D0CA84000E00017E6FA1
:100AA800000E7F6F000E806F000E816F000E046EC7
:100AB800000E036E014A022A5CD0CA94000E00019F
:100AC8008B6F010E8A6F000E106E000E0F6E8D80F8
:100AD80002BE06D0025011E1020E015CD8B00DD062
:100AE80005C092F006C093F005C003F006C004F0FC
:100AF800014A022A66EC08F03BD003C029F004C082
:100B08002AF0291E2A1E294A2A2A055029242B6E32
:100B180006502A202C6E2BC021F02CC022F03FEC6E
:100B280009F021C02BF022C02CF02CBE0BD0F40E03
:100B38002B5C010E2C58D8A005D0000E026E010EB9
:100B4800016E16D003500524216E04500620226E33
:100B5800000E246E020E236E6AEC07F021C092F09C
:100B680022C093F005C003F006C004F0014A022A2F
:100B7800CA84000E066E000E056E1200D6EC08F050
:100B88000E01E38F75966692CD96B1960F01149774
:100B98000E01469998820E01469B9884968C958200
:100BA8000E01469D9886958896869690959496927D
:100BB8000E01459399929590969E969A96980E0155
:100BC800459599940E01479D97940E01459F999ECE
:100BD8000E014695979C0E014693979A0E014591F2
:100BE800999098980E01469F948E9A889A8A948232
:100BF8009480948C0E01459B0E0145999786998A9D
:100C08009988939A95968A8A8C969A809A82958ED4
:100C18001200C19EC194FC0EC116C098C09AC09C17
:100C2800C09EC0943F0E0E018D170E018D9B0E01C4
:100C38008D870E018B9F0E018B9B200E0E018A6FF4
:100C48000E01899F0E0186918693869586978699CF
:100C58000E01869B869D869F0F01539F0F01389F2B
:100C68000F01379F0E0147810E0147830E0147850B
:100C78000E0147870E0147890E01478B0E014687F3
:100C88000E01478F0E0146810E01458D928092829A
:100C980092849286928A978E9288998C988094846E
:100CA8001200000E216ED1A207D0000E146E010EA4
:100CB800136E010E216ED192D1A407D0000E186ECA
:100CC800010E176E010E216ED194D1A607D0000E29
:100CD8001A6E010E196E010E216ED196D1A808D098
:100CE800000E0001916F010E906F010E216ED198D8
:100CF800D1AA08D0000E00018F6F010E8E6F010E71
:100D0800216ED19AD1AC07D0000E166E010E156E69
:100D1800010E216ED19CD1AE07D0000E126E010ECD
:100D2800116E010E216ED19E2150D8B41200D58EBD
:100D380012000001600500016111D8A406D08C8062
:100D48008D9E8D9A8D9890941200020E0001601964
:100D580000016111D8A406D08C908D8E8D9A8D9843
:100D680090941200030E0001601900016111D8A4CB
:100D780006D08C908D9E8D8A8D9890941200040ECA
:100D88000001601900016111D8A406D08C908D9ED5
:100D98008D9A8D8890941200050E0001601900014B
:100DA8006111D8A406D08C908D9E8D9A8D989084D0
:100DB80012008C908D9E8D9A8D989094120000014F
:100DC800646F64C061F00001645101090001626F41
:100DD800000E0001636FC68A0D0EE82EFED700F0E4
:100DE800C580C5B0FED79EA6FED79E9661C0C9FF36
:100DF800C5509EA6FED79E9660C0C9FFC5BCFED74B
:100E08009EA6FED79E96C582C5B2FED79EA6FED7E1
:100E18009E9662C0C9FFC5BCFED79EA6FED79E9609
:100E2800C586C7A0FED79EA6FED7C9CF63F0C58AE0
:100E3800C588C5B8FED79E96C584C5B4FED79E960C
:100E4800C68A00016351120000018A5100018B110A
:100E5800D8B417D00F4A102A3F500F5C1050800AA0
:100E6800216E4050800A2158D8A01200000E106E42
:100E7800000E0F6E8D90000E00018B6F000E8A6FB2
:100E880012000F4A102A3FC021F040C022F0211E54
:100E9800221E214A222A0001925121260001935143
:100EA800222221500F5C1050800A236E2250800AA3
:100EB8002358D8A01200000E106E000E0F6E8D8001
:100EC800000E00018B6F010E8A6F1200000E266E55
:100ED80024AE06D0236C241ED8B0242A010E266E18
:100EE80022AE06D0216C221ED8B0222A010E261A64
:100EF800000E286E000E276E23502410D8B41CD084
:100F0800010E256E04D0D89023362436252A24AE27
:100F1800FAD7D890273628362350215C24502258F7
:100F2800D8A005D02350215E2450225A2780D8907B
:100F380024322332252EEDD72650D8B404D0276C7E
:100F4800281ED8B0282A27C021F028C022F0120075
:100F580021042210D8A406D08C808D9E8D9A8D985D
:100F680090941200020E21182210D8A406D08C905A
:100F78008D8E8D9A8D9890941200030E2118221050
:100F8800D8A406D08C908D9E8D8A8D98909412004E
:100F9800040E21182210D8A406D08C908D9E8D9A0C
:100FA8008D8890941200050E21182210D8A406D01E
:100FB8008C908D9E8D9A8D98908412008C908D9E29
:100FC8008D9A8D989094120003CF0DF00E6A0F0140
:100FD8001AB1FDD7A10E0D180E10D8A405D00BC05C
:100FE80088F00CC089F013D0A50E0D180E10D8A4E7
:100FF80005D009C088F00AC089F009D0A90E0D18DB
:101008000E10D8A404D007C088F008C089F088C0A2
:1010180003FF010E0D1A0F011989A19C1200D3506C
:101028005F0BD36E0E0134510F0B9009346F0E0114
:101038003451F00B0A09346F0E013651F00B0809D0
:10104800366F0E0133510F0B5009336F0E013651B5
:101058000F0BA009366F0E013551F00B0609356FDD
:101068000E0135510F0B8009356FD3504009D36EEF
:101078001200380EF66E130EF76E000EF86E0900A9
:10108800F5CF92F00900F5CF93F0360EF66E130EF9
:10109800F76E000EF86E0900F5CF3FF00900F5CFA6
:1010A80040F000EE7EF0140EEE6AE806FDE100EE78
:1010B80001F0200EEE6AE806FDE141904192000140
:1010C80041EF02F006BE0FD0B90E055C0B0E0658B4
:1010D800D8A009D0000E066E000E056E000E026E36
:1010E800000E016E120006BE1200DC0E055C050E35
:1010F8000658D8A01200000E0001856F010E846FFB
:10110800000E026E000E016E050E0001936FDC0EDC
:10111800926F12000001626F62C063F0C68A0D0E02
:10112800E82EFED700F0C580C5B0FED79E9663C0F6
:10113800C9FFC5BCFED79EA6FED79E9660C0C9FF54
:10114800C5BCFED79EA6FED79E9661C0C9FFC5BC8A
:10115800FED79EA6FED7C584C5B4FED79E96C68A7E
:1011680012000001606F5E0E0001616FC68A0D0EED
:10117800E82EFED700F0C580C5B0FED79E9661C0A8
:10118800C9FFC5BCFED79EA6FED79E9660C0C9FF04
:10119800C5BCFED79EA6FED7C584C5B4FED79E960D
:1011A800C68A12000E01D99F0E01D991D993D995FB
:1011B800000E0E01CE6F000E0E01CF6F000E0E0155
:1011C800D06F000E0E01D16F000E0E01D26F000E0F
:1011D8000E01D36F000E0E01D46F000E0E01D56FF5
:1011E80012000001605100016203F3CF64F0F4CFF4
:1011F80065F00001605100016303F35000016527A9
:101208000001615100016203F3500001652764C0C9
:1012180060F065C061F01200F28A9D809D82A08214
:10122800B780A08CF2860F0155830F0155850F01F9
:1012380055870F0155890F01558B0F01558D0F01EA
:10124800558FF28CF28E120053EC09F075EC09F010
:1012580094EC09F08CEC09F081EC09F00DEC06F047
:1012680013EC08F0C2EC05F065EC09F079EC00F03D
:1012780065EC09F0120022AE0DD021C023F022C087
:1012880024F0231E241E234A242A23C021F024C02C
:1012980022F0120021C021F022C022F01200648A3C
:1012A8006550F80B0109656E669ED350F80B01096D
:1012B800D36ED338070BE806D8A4FBD766BA12005A
:1012C800FDD78D908C94909E8E948E9A8E9C8F983C
:1012D80090908D9290928C908D9E8D9A8D989094EE
:1012E8001200D59ED58CD550CF0B1009D56ED5964A
:1012F800D550F80B0609D56E12000F010495030EA0
:101308000F0104130F010451870B0809046F120021
:10131800CA94030ECA12CA50870B0809CA6E120073
:10132800CD903F0ECD16300ECD12CD8212000500A5
:02133800F401BE
:107FF000A0F707FE13F0FFF7DBFFFFFF01F0F8F239
:00000001FF
