:040000007EEF00F09F
:100008004982FACF33F0FBCF34F0E9CF35F0EACFAD
:1000180036F0E1CF37F0E2CF38F0D9CF39F0DACF88
:100028003AF0F3CF3BF0F4CF3CF0F6CF3DF0F7CF0A
:100038003EF0F8CF3FF0F5CF40F049C041F04AC05C
:1000480042F04BC043F04CC044F0A1AC08D0A19C96
:10005800E6EC07F0000E0001876F010E866FB8A06E
:1000680007D0B89062EC07F094EC08F00F01048513
:100078009EA212D09E92054A062A06BE0CD0B80E41
:10008800055C0B0E0658D8A006D00B0E066EB80EEF
:10009800056ECA9401D0CA84D1EC06F0F2A404D04B
:1000A800F29480EC00F0D59E44C04CF043C04BF075
:1000B80042C04AF041C049F040C0F5FF3FC0F8FFD8
:1000C8003EC0F7FF3DC0F6FF3CC0F4FF3BC0F3FF66
:1000D8003AC0DAFF39C0D9FF38C0E2FF37C0E1FFC4
:1000E80036C0EAFF35C0E9FF34C0FBFF33C0FAFF72
:1000F8004992110063EF08F00001AA510001AB1109
:10010800D8B423D0000E0001AB6F000EAA6F83B8DD
:100118001CD0010E171A0001F8510001F911D8B4CA
:100128000BD017501810D8A402D08C8601D08C960A
:1001380017A005D08A8A04D08C9617B0FBD78A9A64
:1001480017A002D08C8401D08C940001A851000122
:10015800A911D8B408D0000E0001A96F000EA86F2D
:1001680084B645EC05F01F502010D8B423D0000EFB
:10017800206E000E1F6E86B21DD0254A262A26BE86
:100188000AD0265004E1030E255CD8A004D0000E46
:10019800266E000E256E25502610D8A403D0908E0A
:1001A8008E9408D025042610D8A402D0909E01D0A1
:1001B800908E8E841D501E10D8B423D0000E1E6E53
:1001C800000E1D6E86B41DD0234A242A24BE0AD0F0
:1001D800245004E1030E235CD8A004D0000E246E42
:1001E800000E236E23502410D8A403D08E8A8E9C30
:1001F80008D023042410D8A402D08E9A01D08E8A65
:100208008E8C1B501C10D8B423D0000E1C6E000E10
:100218001B6E84BC1DD0214A222A22BE0AD022503D
:1002280004E1030E215CD8A004D0000E226E000E5B
:10023800216E21502210D8A403D08F88909008D026
:1002480021042210D8A402D08F9801D08F889080E2
:1002580019501A10D8B43FD0000E1A6E000E196E3D
:1002680083B239D00D500E10D8A415D0154A162ACD
:1002780016BE0AD0165004E1060E155CD8A004D0AC
:10028800000E166E000E156E15C027F016C028F069
:1002980027EC08F020D011501210D8A40ED015C0A9
:1002A80013F016C014F0000E126E010E116E14BE7B
:1002B80012D014500CE1020E07D0134A142A14BEAF
:1002C8000AD0145004E1060E135CD8A004D0000E26
:1002D800146E010E136E0001AC510001AD11D8B4BB
:1002E8001200000E0001AD6F000EAC6F0D500E1025
:1002F800D8A40BD086B61200000E0E6E010E0D6E3D
:100308000F01559F0F01568F120086A61200000E8E
:100318000E6E000E0D6E0F01558F0F01569F115076
:100328001210D8A410D0010E471A47C0F8F048C0E0
:10033800F9F047504810D8B403D08D82909212003B
:100348008D9290821200000E126E000E116E13C074
:1003580015F014C016F0000E0001A36F000EA26F76
:10036800000E0001A56F000EA46F15C027F016C07F
:1003780028F0AE0E296E000E2A6E000E2C6E0C0EA2
:100388002B6E86EC06F015C027F016C028F027EC77
:1003980008F012008C80040E0001FB6F0C0E0001A7
:1003A800FA6F330EE82EFED7FA2FFCD7FB2FFAD7B9
:1003B80000D08D8E040E0001FB6F0C0E0001FA6F49
:1003C800330EE82EFED7FA2FFCD7FB2FFAD700D032
:1003D8008D8A040E0001FB6F0C0E0001FA6F330EBC
:1003E800E82EFED7FA2FFCD7FB2FFAD700D08D883E
:1003F800040E0001FB6F0C0E0001FA6F330EE82E9D
:10040800FED7FA2FFCD7FB2FFAD700D09084040E22
:100418000001FB6F0C0E0001FA6F330EE82EFED7B9
:10042800FA2FFCD7FB2FFAD700D09094040E0001C6
:10043800FB6F0C0E0001FA6F330EE82EFED7FA2F71
:10044800FCD7FB2FFAD700D08D98040E0001FB6F64
:100458000C0E0001FA6F330EE82EFED7FA2FFCD7E8
:10046800FB2FFAD700D08D9A040E0001FB6F0C0EFB
:100478000001FA6F330EE82EFED7FA2FFCD7FB2FB8
:10048800FAD700D08D9E040E0001FB6F0C0E000100
:10049800FA6F330EE82EFED7FA2FFCD7FB2FFAD7C8
:1004A80000D08C90040E0001FB6F0C0E0001FA6F57
:1004B800330EE82EFED7FA2FFCD7FB2FFAD700D041
:1004C800908E040E0001FB6F0C0E0001FA6F330EC4
:1004D800E82EFED7FA2FFCD7FB2FFAD700D08E8450
:1004E800040E0001FB6F0C0E0001FA6F330EE82EAC
:1004F800FED7FA2FFCD7FB2FFAD700D08E8A040E2E
:100508000001FB6F0C0E0001FA6F330EE82EFED7C8
:10051800FA2FFCD7FB2FFAD700D08E8C040E0001DF
:10052800FB6F0C0E0001FA6F330EE82EFED7FA2F80
:10053800FCD7FB2FFAD700D08F88040E0001FB6F81
:100548000C0E0001FA6F330EE82EFED7FA2FFCD7F7
:10055800FB2FFAD700D09080040E0001FB6F0C0E21
:100568000001FA6F330EE82EFED7FA2FFCD7FB2FC7
:10057800FAD700D0909E040E0001FB6F0C0E00010C
:10058800FA6F330EE82EFED7FA2FFCD7FB2FFAD7D7
:1005980000D08E94040E0001FB6F0C0E0001FA6F60
:1005A800330EE82EFED7FA2FFCD7FB2FFAD700D050
:1005B8008E9A040E0001FB6F0C0E0001FA6F330EC9
:1005C800E82EFED7FA2FFCD7FB2FFAD700D08E9C47
:1005D800040E0001FB6F0C0E0001FA6F330EE82EBB
:1005E800FED7FA2FFCD7FB2FFAD700D08F98040E2E
:1005F8000001FB6F0C0E0001FA6F330EE82EFED7D8
:10060800FA2FFCD7FB2FFAD700D09090040E0001E8
:10061800FB6F0C0E0001FA6F330EE82EFED7FA2F8F
:10062800FCD7FB2FFAD700D01200000E0001FB6F99
:100638000E0EFA6FAFEC04F0FAC00BF0FBC00CF032
:100648000CC000F10101016B00BF016900C1AEF0EF
:1006580001C1AFF00B500001B06FB16B000E00018B
:10066800FB6F040EFA6FAFEC04F0FAC09AF0FBC00F
:100678009BF09AC000F19BC001F1040E0101026FCA
:1006880001010135013300330101022FF9D700C1FF
:10069800B2F001C1B3F0000E0001FB6F030EFA6F58
:1006A800AFEC04F0FAC098F0FBC099F098C000F1E4
:1006B80099C001F1040E0101026F010101350133F6
:1006C80000330101022FF9D700C1B4F001C1B5F020
:1006D800000E0001FB6F060EFA6FAFEC04F0FAC0D3
:1006E80009F0FBC00AF00AC000F10101016B00BF6C
:1006F800016900C1B6F001C1B7F009500001B86F37
:10070800B96B000E0001FB6F020EFA6FAFEC04F03C
:10071800FAC096F0FBC097F096C000F197C001F1BF
:10072800040E0101026F010101350133003301019B
:10073800022FF9D700C1BAF001C1BBF0000E0001C9
:10074800FB6F090EFA6FAFEC04F0FAC094F0FBC02F
:1007580095F094C000F195C001F1040E0101026FFB
:1007680001010135013300330101022FF9D700C11E
:10077800BCF001C1BDF0000E0001FB6F010EFA6F65
:10078800AFEC04F0FAC007F0FBC008F008C000F1B5
:100798000101016B00BF016900C1BEF001C1BFF0DA
:1007A80007500001C06FC16B000E0001FB6F050E02
:1007B800FA6FAFEC04F0FAC092F0FBC093F092C06D
:1007C80000F193C001F1040E0101026F010101352E
:1007D800013300330101022FF9D700C1C2F001C172
:1007E800C3F0000E0001FB6F000EFA6FAFEC04F0CF
:1007F800FAC090F0FBC091F090C000F191C001F1F7
:10080800040E0101026F01010135013300330101BA
:10081800022FF9D700C1C4F001C1C5F01200000EC3
:1008280001010E6F000E0D6F000E01010A6F000E20
:10083800096F000E01010C6F000E0B6F14EC09F02C
:100848000F010485000E59EC09F015041610D8A400
:100858000DD0DEC0AEF0DFC0AFF0E0C0B0F0E1C058
:10086800B1F0E2C0B2F0E3C0B3F069D0030E1518DE
:100878001610D8A413D0000E0001FB6F030EFA6FF8
:10088800000E0001FD6F0C0EFC6FAE0E0001FE6F36
:10089800000E0001FF6FC2EC05F051D019EC03F017
:1008A800000E0001FB6F080EFA6FAFEC04F0FAC0FF
:1008B8000DF1FBC00EF10DC106F10EC107F1050ED9
:1008C8000101086F01010735073306330101082FBD
:1008D800F9D706C10DF107C10EF109C106F10AC128
:1008E80007F10101061F071F064B072B01010D51D8
:1008F8000101062501010B6F01010E5101010721BC
:1009080001010C6F0BC1FAF00CC1FBF0ACEC09F063
:10091800FAC00BF1FBC00CF101010CBF10D00101B2
:100928000C5105E1020E01010B5DD8A008D00101B0
:100938000D5159EC09F00DC109F10EC10AF1000180
:10094800885100018911D8A480D7000E0001896F51
:10095800010E886F7AD70E0186510001FA19E00B53
:10096800FA190E01866FA00E00D0E82EFDD7C18EB1
:10097800C082A00E00D0E82EFDD7C092C0A0FED73E
:10098800C19E0001FA510001FB11D8A405D0C2CFC5
:10099800FCF0C3CFFDF070D00001FA050001FB1197
:1009A800D8A405D048CEFCF049CEFDF065D0020EA3
:1009B8000001FA190001FB11D8A405D04ACEFCF0B9
:1009C8004BCEFDF059D0030E0001FA190001FB11BE
:1009D800D8A405D04CCEFCF04DCEFDF04DD0040E81
:1009E8000001FA190001FB11D8A405D04ECEFCF085
:1009F8004FCEFDF041D0050E0001FA190001FB11A0
:100A0800D8A405D050CEFCF051CEFDF035D0060E5E
:100A18000001FA190001FB11D8A405D052CEFCF050
:100A280053CEFDF029D00E0E0001FA190001FB117A
:100A3800D8A405D062CEFCF063CEFDF01DD0080E20
:100A48000001FA190001FB11D8A405D056CEFCF01C
:100A580057CEFDF011D0090E0001FA190001FB1163
:100A6800D8A405D058CEFCF059CEFDF005D0000E24
:100A78000001FD6F000EFC6FFCC0FAF0FDC0FBF03A
:100A88001200000E326E000E316E02BE05D002500A
:100A980014E10104D8B011D0CA84000E0001826F9D
:100AA800000E836F000E846F000E856F000E046EBB
:100AB800000E036E014A022A5CD0CA94000E00019F
:100AC800A16F010EA06F000E106E000E0F6E8D80CC
:100AD80002BE06D0025011E1020E015CD8B00DD062
:100AE80005C0F6F006C0F7F005C003F006C004F034
:100AF800014A022AECEC08F03BD003C02FF004C0F6
:100B080030F02F1E301E2F4A302A05502F24316E08
:100B180006503020326E31C027F032C028F0C2ECC7
:100B280009F027C031F028C032F032BE0BD0F40EE5
:100B3800315C010E3258D8A005D0000E026E010EAD
:100B4800016E16D003500524276E04500620286E27
:100B5800000E2A6E020E296EA4EC07F027C0F6F0EC
:100B680028C0F7F005C003F006C004F0014A022AC5
:100B7800CA84000E066E000E056E1200A00E01015A
:100B8800036F0101035101090101016FD8900001B0
:100B9800FA35D96E0001FB35DA6E780ED926000ECB
:100BA800DA22DF500101026F000E0101056F000E0D
:100BB800046FC68A0D0EE82EFED700F0C580C5B0BA
:100BC800FED79EA6FED79E9603C1C9FFC5509EA616
:100BD800FED79E9602C1C9FFC5BCFED79EA6FED70A
:100BE8009E96C582C5B2FED79EA6FED79E9601C127
:100BF800C9FFC5BCFED79EA6FED79E96C586000E29
:100C08000101056F000E046F13D0C7A0FED79EA682
:100C1800FED7010104510001FE25D96E01010551DD
:100C28000001FF21DA6EC9CFDFFF0101044B052B5C
:100C38000001FC510101045D01010551800A010117
:100C4800006F0001FD51800A01010059D8A0DDD7CD
:100C5800C58AC588C5B8FED79E96C584C5B4FED7D3
:100C68009E96C68A12000E01E38F75966692CD96FF
:100C7800B1960F0114970E01469998820F01548975
:100C88000E01469B9884968C95820F01548F0E0115
:100C9800469D98860F01548D9588968696909594D2
:100CA80096920E01459399929590969E969A96984B
:100CB8000E01459599940E01479D97940E01459F05
:100CC800999E0E014695979C0E014693979A0E01A0
:100CD8004591999098980E01469F948E9A889A8A81
:100CE80094829480948C0E01459B0E0145999786B9
:100CF800998A9988939A95968A8A8C969A809A82E4
:100D0800958E1200A00E2E6ED8902734D96E2834F6
:100D1800DA6E780ED926000EDA22DF502F6E000E1A
:100D2800316E000E306EC68A0D0EE82EFED700F02A
:100D3800C580C5B0FED79E962EC0C9FFC5BCFED7DC
:100D48009EA6FED79E962FC0C9FF000E316E000EDC
:100D5800306E0FD0C5BCFED79EA6FED79E963050EB
:100D68002924D96E31502A20DA6EDF50C96E304AF4
:100D7800312A2B50305C3150800A2D6E2C50800A5D
:100D88002D58D8A0E7D7C5BCFED79EA6FED7C584E8
:100D9800C5B4FED79E96C68A1200000E276ED1A251
:100DA80007D0000E1A6E010E196E010E276ED19231
:100DB800D1A407D0000E1E6E010E1D6E010E276E07
:100DC800D194D1A607D0000E206E010E1F6E010E21
:100DD800276ED196D1A808D0000E0001AB6F010E86
:100DE800AA6F010E276ED198D1AA08D0000E000173
:100DF800A96F010EA86F010E276ED19AD1AC07D04A
:100E0800000E1C6E010E1B6E010E276ED19CD1AE1A
:100E180008D0000E0001AD6F010EAC6F010E276EF9
:100E2800D19E2750D8B41200D58E1200C19EC1841D
:100E3800FC0EC116C098C09AC09CC09EC0943F0EBC
:100E48000E018D170E018D9B0E018D870E018B9F54
:100E58000E018B9B200E0E018A6F0E01899F0E01D9
:100E6800869186938695869786990E01869B869DA0
:100E7800869F0F01539F0F01389F0F01379F0E0167
:100E880047810E0147830E0147850E0147870E01F2
:100E980047890E01478B0E0146870E01478F0E01C9
:100EA80046810E01458D9280928292849286928A22
:100EB800978E9288998C9880948412000001A05192
:100EC8000001A111D8B417D00F4A102A45500F5C61
:100ED8001050800A276E4650800A2758D8A0120062
:100EE800000E106E000E0F6E8D90000E0001A16FA7
:100EF800000EA06F12000F4A102A45C027F046C006
:100F080028F0271E281E274A282A0001F6512726DE
:100F18000001F751282227500F5C1050800A296ED3
:100F28002850800A2958D8A01200000E106E000E12
:100F38000F6E8D80000E0001A16F010EA06F1200D0
:100F4800000E2C6E2AAE06D0296C2A1ED8B02A2A8A
:100F5800010E2C6E28AE06D0276C281ED8B0282A81
:100F6800010E2C1A000E2E6E000E2D6E29502A101E
:100F7800D8B41CD0010E2B6E04D0D89029362A364E
:100F88002B2A2AAEFAD7D8902D362E362950275C30
:100F98002A502858D8A005D02950275E2A50285A08
:100FA8002D80D8902A3229322B2EEDD72C50D8B448
:100FB80004D02D6C2E1ED8B02E2A2DC027F02EC09E
:100FC80028F01200000E2A6E000E296E03CF9EF044
:100FD80000019F6B000E2A6E000E296E2ABE03D0F8
:100FE8002A502BE126D0D8902934D96E2A34DA6ECB
:100FF800C60ED926000EDA2200019E51DE1813E132
:1010080000019F51DE18D8A40ED0D8902934D96E8B
:101018002A34DA6EAE0ED926000EDA22DECF9CF024
:10102800DDCF9DF00AD0294A2A2A2ABEDCD72A50C9
:1010380004E10C0E295CD8A0D6D79CC003FF0F0191
:101048001989A19C120027042810D8A406D08C80E6
:101058008D9E8D9A8D9890941200020E2718281054
:10106800D8A406D08C908D8E8D9A8D98909412006D
:10107800030E27182810D8A406D08C908D9E8D8A30
:101088008D9890941200040E27182810D8A406D022
:101098008C908D9E8D9A8D8890941200050E27183D
:1010A8002810D8A406D08C908D9E8D9A8D98908407
:1010B80012008C908D9E8D9A8D9890941200F40E4B
:1010C800F66E120EF76E000EF86E00EEC6F010EE19
:1010D80034F00900F5CFEEFFE550E150FAE17A0E61
:1010E800F66E140EF76E000EF86E00EE45F010EE78
:1010F80004F00900F5CFEEFFE550E150FAE100EE0B
:1011080060F0660EEE6AE806FDE100EE01F0260EDC
:10111800EE6AE806FDE149904992000113EF04F0F8
:1011280011501210D8B412000001A44BA52B0001D5
:10113800A5BF12000001A55105E1C90E0001A45D7B
:10114800D8A012000001A2510001A311D8B407D001
:1011580013C027F014C028F027EC08F006D0000EC2
:10116800286E000E276E27EC08F0010E0001A21B66
:10117800000E0001A56F000EA46F1200D3505F0B84
:10118800D36E0E0134510F0B9009346F0E01345198
:10119800F00B0A09346F0E013651F00B0809366F4F
:1011A8000E0133510F0B5009336F0E0136510F0BDF
:1011B800A009366F0E013551F00B0609356F0E0187
:1011C80035510F0B8009356FD3504009D36E12008B
:1011D80006BE0FD0B90E055C0B0E0658D8A009D074
:1011E800000E066E000E056E000E026E000E016EF9
:1011F800120006BE1200DC0E055C050E0658D8A0CB
:101208001200000E00018D6F010E8C6F000E026E31
:10121800000E016E050E0001F76FDC0EF66F12006E
:10122800D6EC09F005EC0AF030EC0AF028EC0AF0EC
:101238001DEC0AF0F8EC09F037EC09F01AEC07F0AD
:10124800C2EC08F037EC06F037EC0AF0E8EC09F0ED
:10125800CEEC01F011EC0AF0E8EC09F037EC0AF0FA
:1012680094EC09F012000F01199B958A958C0F01D7
:101278001951F00B0909196FA00E0F01026FC00E6A
:101288000F01176F0F011951F00B0609196F0F01A4
:1012980019890F0118810F01189F0F01399B000E42
:1012A8000F01036F0F01198B12000001FA6F5E0E18
:1012B8000001FB6FC68A0D0EE82EFED700F0C58030
:1012C800C5B0FED79E96FBC0C9FFC5BCFED79EA67B
:1012D800FED79E96FAC0C9FFC5BCFED79EA6FED70C
:1012E800C584C5B4FED79E96C68A1200A100A30085
:1012F800A500A700A900AB00AD00AF00B100B30086
:10130800B500B7000000FF007F007F00000000006C
:10131800000000000000000000000000F4010100CF
:10132800F28A9D809D82A082B780A08CF2860F01F0
:1013380055830F0155850F0155870F0155890F01F9
:10134800558B0F01558D0F01558FF28CF28E1200BF
:101358000001FBAF0ED0FAC0FCF0FBC0FDF00001AD
:10136800FC1FFD1FFC4BFD2BFCC0FAF0FDC0FBF081
:101378001200FAC0FAF0FBC0FBF0120028AE0DD044
:1013880027C029F028C02AF0291E2A1E294A2A2AFD
:1013980029C027F02AC028F0120027C027F028C04B
:1013A80028F01200648A6550F80B0109656E669E84
:1013B800D350F80B0109D36ED338070BE806D8A42D
:1013C800FBD766BA1200FDD78D908C94909E8E94B0
:1013D8008E9A8E9C8F9890908D9290928C908D9EE4
:1013E8008D9A8D9890941200C69A948694884F0E80
:1013F800C86EC650F00B0809C66E000EC96EC68AC4
:101408001200D59ED58CD550CF0B1009D56ED59628
:10141800D550F80B0609D56E1200908E8E848E8AF0
:101428008E8C8F8890808C808D8E8D8A8D8890840C
:1014380012000F010495030E0F0104130F0104514C
:10144800870B0809046F1200CA94030ECA12CA5007
:10145800870B0809CA6E1200CD903F0ECD16300ECC
:10146800CD12CD8212008A8A8C868D8290928C94BD
:0614780012000500010056
:107FF00080F607FE13F0FFF7DBFFFFFC01F0F8F25D
:00000001FF
