:040000008EEF00F08F
:100008004782FACF31F0FBCF32F0E9CF33F0EACFB5
:1000180034F0E1CF35F0E2CF36F0D9CF37F0DACF90
:1000280038F0F3CF39F0F4CF3AF0F6CF3BF0F7CF12
:100038003CF0F8CF3DF0F5CF3EF047C03FF048C068
:1000480040F049C041F04AC042F0A1AC03D0A19CA5
:100058008FEC08F0B8A007D0B8903DEC0AF0E9ECB6
:1000680004F00F0104859EA212D09E92034A042A2E
:1000780004BE0CD0B80E035C0B0E0458D8A006D0F2
:100088000B0E046EB80E036ECA9401D0CA84F6EC47
:1000980007F0F2A419D0F2940001944B952B0001BB
:1000A80095BF08D00001955107E1020E0001945D4B
:1000B800D8B002D0D58E08D0000E0001956F000E82
:1000C800946F90EC00F0D59E42C04AF041C049F0D0
:1000D80040C048F03FC047F03EC0F5FF3DC0F8FFC4
:1000E8003CC0F7FF3BC0F6FF3AC0F4FF39C0F3FF4E
:1000F80038C0DAFF37C0D9FF36C0E2FF35C0E1FFAC
:1001080034C0EAFF33C0E9FF32C0FBFF31C0FAFF59
:1001180047921100B4EF09F00001985100019911BC
:10012800D8B423D0000E0001996F000E986F83B8E1
:100138001CD0010E1B1A0001E2510001E311D8B4D2
:100148000BD01B501C10D8A402D08C8601D08C96E2
:100158001BA005D08A8A04D08C961BB0FBD78A9A3C
:100168001BA002D08C8401D08C9400019651000110
:100178009711D8B408D0000E0001976F000E966F43
:1001880084B6C1EC06F00001A2510001A311D8B455
:1001980021D0000E0001A36F000EA26F86B21AD004
:1001A80011501210D8A40FD0214A222A22BE12D0F0
:1001B800225004E1040E215CD8A00CD0000E226E5F
:1001C800000E216E07D0010E0F1A000E0001A56F58
:1001D800010EA46F0001A0510001A111D8B421D0D3
:1001E800000E0001A16F000EA06F86B41AD0115046
:1001F8001210D8A40FD01F4A202A20BE12D0205097
:1002080004E1040E1F5CD8A00CD0000E206E000E76
:100218001F6E07D0010E0D1A000E0001A56F010E0A
:10022800A46F00019E5100019F11D8B421D0000E87
:1002380000019F6F000E9E6F84BC1AD011501210DF
:10024800D8A40FD01D4A1E2A1EBE12D01E5004E18B
:10025800040E1D5CD8A00CD0000E1E6E000E1D6E84
:1002680007D0010E0B1A000E0001A56F010EA46F36
:1002780021C029F022C02AF01FC02BF020C02CF08A
:100288001DC02DF01EC02EF06CEC09F000019C5131
:1002980000019D11D8B448D0000E00019D6F000EDA
:1002A8009C6F83B241D011501210D8A415D0194AAE
:1002B8001A2A1ABE0AD01A5004E1060E195CD8A0F0
:1002C80004D0000E1A6E000E196E19C023F01AC061
:1002D80024F0C1EC0AF028D015501610D8A416D076
:1002E80019C017F01AC018F017501810D8A404D065
:1002F800000E186E010E176E000E166E010E156EAA
:1003080018BE12D018500CE1020E07D0174A182A4E
:1003180018BE0AD0185004E1060E175CD8A004D005
:10032800000E186E010E176E00019A5100019B1104
:10033800D8B41200000E00019B6F000E9A6F115086
:100348001210D8A40BD086B61200000E126E010E41
:10035800116E0F01559F0F01568F120086A61200CD
:10036800000E126E000E116E0F01558F0F01569F71
:100378000001A4510001A511D8A410D0010E451AFE
:1003880045C0E2F046C0E3F045504610D8B403D06B
:100398008D82909212008D9290821200000E166E3D
:1003A800000E156E000E0001A56F000EA46F17C099
:1003B80019F018C01AF0000E00018B6F000E8A6F3A
:1003C800000E00018D6F000E8C6F000E0001916F02
:1003D800010E906F19C023F01AC024F0C1EC0AF086
:1003E80012008C80040E0001E56F0C0E0001E46F12
:1003F800330EE82EFED7E42FFCD7E52FFAD700D02E
:100408008D8E040E0001E56F0C0E0001E46F330EB3
:10041800E82EFED7E42FFCD7E52FFAD700D08D8A37
:10042800040E0001E56F0C0E0001E46F330EE82E98
:10043800FED7E42FFCD7E52FFAD700D08D88040E1D
:100448000001E56F0C0E0001E46F330EE82EFED7B5
:10045800E42FFCD7E52FFAD700D09084040E0001D2
:10046800E56F0C0E0001E46F330EE82EFED7E42F83
:10047800FCD7E52FFAD700D09094040E0001E56F61
:100488000C0E0001E46F330EE82EFED7E42FFCD7E4
:10049800E52FFAD700D08D98040E0001E56F0C0EF9
:1004A8000001E46F330EE82EFED7E42FFCD7E52FCA
:1004B800FAD700D08D9A040E0001E56F0C0E0001EA
:1004C800E46F330EE82EFED7E42FFCD7E52FFAD7DA
:1004D80000D08D9E040E0001E56F0C0E0001E46F44
:1004E800330EE82EFED7E42FFCD7E52FFAD700D03D
:1004F8008C90040E0001E56F0C0E0001E46F330EC2
:10050800E82EFED7E42FFCD7E52FFAD700D0908E3F
:10051800040E0001E56F0C0E0001E46F330EE82EA7
:10052800FED7E42FFCD7E52FFAD700D08E84040E2F
:100538000001E56F0C0E0001E46F330EE82EFED7C4
:10054800E42FFCD7E52FFAD700D08E8A040E0001DD
:10055800E56F0C0E0001E46F330EE82EFED7E42F92
:10056800FCD7E52FFAD700D08E8C040E0001E56F7A
:100578000C0E0001E46F330EE82EFED7E42FFCD7F3
:10058800E52FFAD700D08F88040E0001E56F0C0E16
:100598000001E46F330EE82EFED7E42FFCD7E52FD9
:1005A800FAD700D09080040E0001E56F0C0E000110
:1005B800E46F330EE82EFED7E42FFCD7E52FFAD7E9
:1005C80000D0909E040E0001E56F0C0E0001E46F50
:1005D800330EE82EFED7E42FFCD7E52FFAD700D04C
:1005E8008E94040E0001E56F0C0E0001E46F330ECB
:1005F800E82EFED7E42FFCD7E52FFAD700D08E9A45
:10060800040E0001E56F0C0E0001E46F330EE82EB6
:10061800FED7E42FFCD7E52FFAD700D08E9C040E26
:100628000001E56F0C0E0001E46F330EE82EFED7D3
:10063800E42FFCD7E52FFAD700D08F98040E0001DD
:10064800E56F0C0E0001E46F330EE82EFED7E42FA1
:10065800FCD7E52FFAD700D09090040E0001E56F83
:100668000C0E0001E46F330EE82EFED7E42FFCD702
:10067800E52FFAD700D01200000E0001E56F0E0E2C
:10068800E46F2BEC06F0E4C009F0E5C00AF00AC0FC
:10069800E8F00001E96BE8BFE969E8C0A6F0E9C045
:1006A800A7F009500001A86FA96B000E0001E56FC3
:1006B800040EE46F2BEC06F0E4C07AF0E5C07BF0A2
:1006C8007AC0E8F07BC0E9F0040E0001EA6F00018F
:1006D800E935E933E8330001EA2FF9D7E8C0AAF091
:1006E800E9C0ABF0000E0001E56F030EE46F2BECE0
:1006F80006F0E4C078F0E5C079F078C0E8F079C099
:10070800E9F0040E0001EA6F0001E935E933E83346
:100718000001EA2FF9D7E8C0ACF0E9C0ADF0000E4F
:100728000001E56F060EE46F2BEC06F0E4C007F05D
:10073800E5C008F008C0E8F00001E96BE8BFE96926
:10074800E8C0AEF0E9C0AFF007500001B06FB16B80
:10075800000E0001E56F020EE46F2BEC06F0E4C01A
:1007680076F0E5C077F076C0E8F077C0E9F0040EDF
:100778000001EA6F0001E935E933E8330001EA2FA7
:10078800F9D7E8C0B2F0E9C0B3F0000E0001E56F98
:10079800090EE46F2BEC06F0E4C074F0E5C075F0C8
:1007A80074C0E8F075C0E9F0040E0001EA6F0001BA
:1007B800E935E933E8330001EA2FF9D7E8C0B4F0A6
:1007C800E9C0B5F0000E0001E56F010EE46F2BECF7
:1007D80006F0E4C005F0E5C006F006C0E8F0000148
:1007E800E96BE8BFE969E8C0B6F0E9C0B7F00550C1
:1007F8000001B86FB96B000E0001E56F050EE46FDC
:100808002BEC06F0E4C072F0E5C073F072C0E8F0BB
:1008180073C0E9F0040E0001EA6F0001E935E9331D
:10082800E8330001EA2FF9D7E8C0BAF0E9C0BBF015
:10083800000E0001E56F000EE46F2BEC06F0E4C03B
:1008480070F0E5C071F070C0E8F071C0E9F0040E16
:100858000001EA6F0001E935E933E8330001EA2FC6
:10086800F9D7E8C0BCF0E9C0BDF01200000E0001E5
:10087800FA6F000EF96F000E0001F66F000EF56FAB
:10088800000E0001F86F000EF76F51EC0BF0FBEC57
:1008980009F00F010485000E96EC0BF00001905151
:1008A80000019111D8B426D0FF0E19240001E46F7D
:1008B800FF0E1A200001E56FA60E0001E66F000E7C
:1008C8000001E76F000E0001E96F0C0EE86F48ECBD
:1008D80007F019C0EAF01AC0EBF0A60E0001EC6FA1
:1008E800000E0001ED6F43EC08F0000E0001916F5F
:1008F800000E906F1ABE0CD01A5003E11904D8A04C
:1009080007D019C0EAF01AC0EBF0DAEC08F051D0C1
:1009180040EC03F0000E0001E56F080EE46F2BECCD
:1009280006F0E4C0F9F0E5C0FAF0F9C0F2F0FAC058
:10093800F3F0050E0001F46F0001F335F333F233E1
:100948000001F42FF9D7F2C0F9F0F3C0FAF0F5C0BE
:10095800F2F0F6C0F3F00001F21FF31FF24BF32B95
:100968000001F9510001F2250001F76F0001FA5169
:100978000001F3210001F86FF7C0E4F0F8C0E5F0DA
:10098800EAEC0BF0E4C0F7F0E5C0F8F00001F8BFBE
:1009980010D00001F85105E1020E0001F75DD8A062
:1009A80008D00001F95196EC0BF0F9C0F5F0FAC047
:1009B800F6F00001665100016711D8A46FD7000E48
:1009C8000001676F010E666F69D715501610D8B40D
:1009D80029D000018C4B8D2B00018DBF23D0000145
:1009E8008D5105E1970E00018C5DD8A01BD0000148
:1009F8008A5100018B11D8B407D017C023F018C052
:100A080024F0C1EC0AF006D0000E246E000E236E0E
:100A1800C1EC0AF0010E00018A1B000E00018D6F67
:100A2800000E8C6F0D500F242F6E0E501020306E5C
:100A38000B502F260C50302230BE1200305003E1EC
:100A48002F04D8A012000001864B872B000187BF16
:100A58001200F50E0001865D010E00018759D8A02D
:100A68001200000E0001876F000E866F0001825190
:100A780000018311D8B40FD021C029F022C02AF078
:100A88001FC02BF020C02CF01DC02DF01EC02EF072
:100A98006CEC09F03BD00F501010D8A402D0010E16
:100AA80001D0000E236E246A21C025F022C026F052
:100AB80027EC0CF023C029F024C02AF00D500E10AA
:100AC800D8A402D0010E01D0000E236E246A1FC0E4
:100AD80025F020C026F027EC0CF023C02BF024C012
:100AE8002CF00B500C10D8A402D0010E01D0000E2F
:100AF800236E246A1DC025F01EC026F027EC0CF0DA
:100B080023C02DF024C02EF06CEC09F0010E00017A
:100B1800821B1200A00E0001EE6F0001EE510109C8
:100B28000001EC6FD8900001E435D96E0001E5357D
:100B3800DA6ED60ED926000EDA22DF500001ED6FEC
:100B4800000E0001F06F000EEF6FC68A0D0EE82E42
:100B5800FED700F0C580C5B0FED79EA6FED79E96EC
:100B6800EEC0C9FFC5509EA6FED79E96EDC0C9FF30
:100B7800C5BCFED79EA6FED79E96C582C5B2FED737
:100B88009EA6FED79E96ECC0C9FFC5BCFED79EA602
:100B9800FED79E96C586C7A0FED79EA6FED7C9508B
:100BA8000001EA6FEB6BD8900001EF35D96E0001B8
:100BB800F035DA6E0001E651D9260001E751DA2254
:100BC800EAC0DEFFEBC0DDFF000E0001F06F010E92
:100BD800EF6F22D0C59AC588C5B8FED79E96C58640
:100BE800C7A0FED79EA6FED7C9500001EA6FEB6BDF
:100BF800D8900001EF35D96E0001F035DA6E0001AA
:100C0800E651D9260001E751DA22EAC0DEFFEBC03F
:100C1800DDFF0001EF4BF02B0001E8510001EF5D13
:100C28000001F051800A0001EA6F0001E951800AD1
:100C38000001EA59D8A0CED7C58AC588C5B8FED75D
:100C48009E96C584C5B4FED79E96C68A12000E012C
:100C580086510001E419E00BE4190E01866FA00E1D
:100C680000D0E82EFDD7C18EC082A00E00D0E82E9D
:100C7800FDD7C092C0A0FED7C19E0001E45100017B
:100C8800E511D8A405D0C2CFE6F0C3CFE7F070D005
:100C98000001E4050001E511D8A405D048CEE6F02E
:100CA80049CEE7F065D0020E0001E4190001E51114
:100CB800D8A405D04ACEE6F04BCEE7F059D0030EC3
:100CC8000001E4190001E511D8A405D04CCEE6F0E6
:100CD8004DCEE7F04DD0040E0001E4190001E511F6
:100CE800D8A405D04ECEE6F04FCEE7F041D0050EA1
:100CF8000001E4190001E511D8A405D050CEE6F0B2
:100D080051CEE7F035D0060E0001E4190001E511D7
:100D1800D8A405D052CEE6F053CEE7F029D00E0E77
:100D28000001E4190001E511D8A405D062CEE6F06F
:100D380063CEE7F01DD0080E0001E4190001E511AB
:100D4800D8A405D056CEE6F057CEE7F011D0090E5C
:100D58000001E4190001E511D8A405D058CEE6F049
:100D680059CEE7F005D0000E0001E76F000EE66FE0
:100D7800E6C0E4F0E7C0E5F01200000E2E6E000EAB
:100D88002D6E00016FBF07D000016F5116E1000101
:100D98006E05D8B012D0CA84000E0001606F000E34
:100DA800616F000E626F000E636F000E026E000E20
:100DB800016E00016E4B6F2B62D0CA94000E0001C9
:100DC800896F010E886F000E146E000E136E8D80F1
:100DD80000016FBF08D000016F5113E1020E00013E
:100DE8006E5DD8B00ED003C0E0F004C0E1F003C0DF
:100DF80001F004C002F000016E4B6F2B27EC0BF0E2
:100E08003DD001C02BF002C02CF02B1E2C1E2B4A0B
:100E18002C2A03502B242D6E04502C202E6E2DC00E
:100E280023F02EC024F000EC0CF023C02DF024C0D9
:100E38002EF02EBE0CD0F40E2D5C010E2E58D8A02C
:100E480006D0000E00016F6F010E6E6F17D00150B3
:100E58000324236E02500420246E000E266E020E18
:100E6800256E7FEC0AF023C0E0F024C0E1F003C057
:100E780001F004C002F000016E4B6F2BCA84000E13
:100E8800046E000E036E1200A00E0001EB6FD890E6
:100E98000001E435D96E0001E535DA6ED60ED926A3
:100EA800000EDA22DF500001EC6F000E0001EE6F39
:100EB800000EED6FC68A0D0EE82EFED700F0C58035
:100EC800C5B0FED79E96EBC0C9FFC5BCFED79EA68F
:100ED800FED79E96ECC0C9FF000E0001EE6F000E13
:100EE800ED6F17D0C5BCFED79EA6FED79E96D890AC
:100EF8000001ED35D96E0001EE35DA6E0001E651DC
:100F0800D9260001E751DA22DF50C96E0001ED4B06
:100F1800EE2B0001E8510001ED5D0001EE51800A61
:100F28000001EA6F0001E951800A0001EA59D8A0DE
:100F3800D9D7C5BCFED79EA6FED7C584C5B4FED7F3
:100F48009E96C68A12000E01E38F75966692CD961C
:100F5800B1960F0114970E01469998820F01548992
:100F68000E01469B9884968C95820F01548F0E0132
:100F7800469D98860F01548D9588968696909594EF
:100F880096920E01459399929590969E969A969868
:100F98000E01459599940E01479D97940E01459F22
:100FA800999E0E014695979C0E014693979A0E01BD
:100FB8004591999098980E01469F948E9A889A8A9E
:100FC80094829480948C0E01459B0E0145999786D6
:100FD800998A9988939A95968A8A8C969A809A8201
:100FE800958E1200000E236ED1A208D0000E0001CB
:100FF8009D6F010E9C6F010E236ED192D1A408D073
:10100800000E0001A16F010EA06F010E236ED19496
:10101800D1A608D0000E0001A36F010EA26F010E29
:10102800236ED196D1A808D0000E0001996F010E49
:10103800986F010E236ED198D1AA08D0000E000136
:10104800976F010E966F010E236ED19AD1AC08D01E
:10105800000E00019F6F010E9E6F010E236ED19C42
:10106800D1AE08D0000E00019B6F010E9A6F010EE1
:10107800236ED19E2350D8B41200D58E1200000ED4
:101088000001F16F000EF06F0001F1BF08D0000100
:10109800F15140E10C0E0001F05DD8B01200D8907B
:1010A8000001F035D96E0001F135DA6E0001EC511E
:1010B800D9260001ED51DA22EAC0E4F0EBC0E5F0F0
:1010C800000E0001E76F180EE66FB7EC0BF0000E8C
:1010D8000001EE6F010E0001EF6F0001E451000105
:1010E800EE270001E5510001EF23D8900001F0350B
:1010F800E16E0001F135E26E0001EE51E1260001DA
:10110800EF51E222DECFE6FFDDCFE5FF0001F04B35
:10111800F12BBAD71200000E266E000E256E03CFF3
:101128007EF000017F6B000E266E000E256E26BE37
:1011380003D0265035E130D0D8902534D96E2634E6
:10114800DA6E940ED926010EDA2200017E51DE18DD
:101158001DE100017F51DE18D8A418D00C0E251807
:101168002610D8A405D066C07CF067C07DF018D0E2
:10117800D8902534D96E2634DA6EA60ED926000EFC
:10118800DA22DECF7CF0DDCF7DF00AD0254A262A90
:1011980026BED2D7265004E10D0E255CD8A0CCD7A8
:1011A8007CC003FF0F011989A19C1200000E0001E9
:1011B800EF6F000EEE6F0001EFBF08D00001EF5196
:1011C8003EE10C0E0001EE5DD8B01200EAC0E4F07A
:1011D800EBC0E5F0000E0001E76F180EE66FB7EC04
:1011E8000BF0000E0001EC6F010E0001ED6F000125
:1011F800E4510001EC270001E5510001ED23D890EE
:101208000001EE35D96E0001EF35DA6E0001EC51C0
:10121800D9260001ED51DA22D8900001EE35E16EB1
:101228000001EF35E26EA60EE126000EE222DECFC7
:10123800E6FFDDCFE5FF0001EE4BEF2BBCD7120038
:10124800C19EC184FC0EC116C098C09AC09CC09EA5
:10125800C0943F0E0E018D170E018D9B0E018D87D8
:101268000E018B9F0E018B9B200E0E018A6F0E01C3
:10127800899F0E01869186938695869786990E0199
:10128800869B869D869F0F01539F0F01389F0F01F4
:10129800379F0E0147810E0147830E0147850E01D6
:1012A80047870E0147890E01478B0E0146870E01BD
:1012B800478F0E0146810E01458D9280928292845D
:1012C8009286928A978E9288998C9880948412003C
:1012D80029042A10D8A402D0908E10D0020E291802
:1012E8002A10D8A402D0909E06D0030E29182A10DE
:1012F800D8A403D0908E8E8402D0909E8E942B0416
:101308002C10D8A402D08E8A10D0020E2B182C10C4
:10131800D8A402D08E9A06D0030E2B182C10D8A46D
:1013280003D08E8A8E8C02D08E9A8E9C2D042E101D
:10133800D8A403D08F8890901200020E2D182E107A
:10134800D8A403D08F9890801200030E2D182E1069
:10135800D8A403D08F88908012008F9890901200A4
:10136800B80EF66E180EF76E000EF86E01EE94F0D9
:1013780010EE1AF00900F5CFEEFFE550E150FAE162
:10138800280EF66E180EF76E000EF86E00EEBEF020
:1013980010EE26F00900F5CFEEFFE550E150FAE136
:1013A8005C0EF66E190EF76E000EF86E00EE43F046
:1013B80010EE04F00900F5CFEEFFE550E150FAE138
:1013C80001EE00F0780EEE6AE806FDE100EE60F04E
:1013D8005E0EEE6AE806FDE100EE01F0220EEE6A0E
:1013E800E806FDE14790479200013AEF04F0000E4D
:1013F8000101916F000E906F000E0101936F000EB6
:10140800926F000E0101936F000E926F010193BF5E
:1014180008D0010193512CE1050E0101925DD8B06D
:10142800120092C1E4F093C1E5F0780E0001E66F76
:10143800010E0001E76F000E0001E96F0C0EE86F66
:101448008EEC05F0010E010192250001EA6F000EF5
:10145800010193210001EB6F780E0001EC6F010E82
:101468000001ED6F43EC08F00101924B932BCED7AE
:1014780012000001885100018911D8B417D0134A0D
:10148800142A4350135C1450800A236E4450800A77
:101498002358D8A01200000E146E000E136E8D9003
:1014A800000E0001896F000E886F1200134A142A7B
:1014B80043C023F044C024F0231E241E234A242AB8
:1014C8000001E05123260001E15124222350135C3E
:1014D8001450800A256E2450800A2558D8A012007E
:1014E800000E146E000E136E8D80000E0001896FC1
:1014F800010E886F1200000E286E26AE06D0256CED
:10150800261ED8B0262A010E286E24AE06D0236CDB
:10151800241ED8B0242A010E281A000E2A6E000EA6
:10152800296E25502610D8B41CD0010E276E04D081
:10153800D89025362636272A26AEFAD7D8902936C7
:101548002A362550235C26502458D8A005D025508B
:10155800235E2650245A2980D89026322532272EF9
:10156800EDD72850D8B404D0296C2A1ED8B02A2A1E
:1015780029C023F02AC024F0120023042410D8A480
:1015880006D08C808D9E8D9A8D9890941200020EB4
:1015980023182410D8A406D08C908D8E8D9A8D98FF
:1015A80090941200030E23182410D8A406D08C900F
:1015B8008D9E8D8A8D9890941200040E2318241005
:1015C800D8A406D08C908D9E8D9A8D889094120008
:1015D800050E23182410D8A406D08C908D9E8D9AC1
:1015E8008D98908412008C908D9E8D9A8D989094F1
:1015F8001200D3505F0BD36E0E0134510F0B9009BC
:10160800346F0E013451F00B0A09346F0E01365154
:10161800F00B0809366F0E0133510F0B5009336F69
:101628000E0136510F0BA009366F0E013551F00B24
:101638000609356F0E0135510F0B8009356FD350F0
:101648004009D36E120004BE10D0B90E035C0B0E15
:101658000458D8A00AD0000E046E000E036E000EC7
:1016680000016F6F000E6E6F120004BE1200DC0ED8
:10167800035C050E0458D8A01200000E00016B6F21
:10168800010E6A6F000E00016F6F000E6E6F050E7F
:101698000001E16FDC0EE06F12003AEC0CF076EC22
:1016A8000CF0A1EC0CF099EC0CF08EEC0CF069EC61
:1016B8000CF074EC0BF024EC09F0FDEC0AF0A7EC4C
:1016C80007F0A8EC0CF04CEC0CF0F5EC01F082EC17
:1016D8000CF04CEC0CF0A8EC0CF0D2EC0BF0120077
:1016E8000F01199B958A958C0F011951F00B090967
:1016F800196FA00E0F01026FC00E0F01176F0F01B7
:101708001951F00B0609196F0F0119890F0118817A
:101718000F01189F0F01399B000E0F01036F0F0176
:10172800198B12000001E46F5E0E0001E56FC68A96
:101738000D0EE82EFED700F0C580C5B0FED79E96E8
:10174800E5C0C9FFC5BCFED79EA6FED79E96E4C0DD
:10175800C9FFC5BCFED79EA6FED7C584C5B4FED7B3
:101768009E96C68A12000001E4510001E603F3CFF9
:10177800E8F0F4CFE9F00001E4510001E703F35089
:101788000001E9270001E5510001E603F3500001DB
:10179800E927E8C0E4F0E9C0E5F01200F28A9D808C
:1017A8009D82A082B780A08CF2860F0155830F011D
:1017B80055850F0155870F0155890F01558B0F016D
:1017C800558D0F01558FF28CF28E12000001E5AF96
:1017D8000ED0E4C0E6F0E5C0E7F00001E61FE71F21
:1017E800E64BE72BE6C0E4F0E7C0E5F01200E4C002
:1017F800E4F0E5C0E5F0120024AE0DD023C025F0DA
:1018080024C026F0251E261E254A262A25C023F098
:1018180026C024F0120023C023F024C024F01200B4
:101828000000FF007F007F000000000000000000B3
:101838000000000000000000000010002000300040
:101848004000F401010023502502F3CF27F0F4CF24
:1018580028F023502602F350282624502502F3505E
:10186800282627C023F028C024F01200648A655077
:10187800F80B0109656E669ED350F80B0109D36E0B
:10188800D338070BE806D8A4FBD766BA1200FDD7F1
:101898008D908C94909E8E948E9A8E9C8F9890901A
:1018A8008D9290928C908D9E8D9A8D989094120026
:1018B800A100A300A500A700A900AB00AD00AF00E0
:1018C800B100B300B500B700BF00C69A94869488EB
:1018D800130EC86EC650F00B0809C66E000EC96E0E
:1018E800C68A1200D59ED58CD550CF0B1009D56E5F
:1018F800D596D550F80B0609D56E1200908E8E84B9
:101908008E8A8E8C8F8890808C808D8E8D8A8D8823
:10191800908412000F010495030E0F0104130F01A8
:101928000451870B0809046F1200CA94030ECA12E7
:10193800CA50870B0809CA6E1200CD903F0ECD160B
:10194800300ECD12CD8212008A8A8C868D829092BA
:081958008C941200050001004F
:107FF00080F607FE13F0FFF7DBFFFFFC01F0F8F25D
:00000001FF
