:040000008EEF00F08F
:100008005E82FACF26F0FBCF27F0E9CF28F0EACFBF
:1000180029F0E1CF2AF0E2CF2BF0D9CF2CF0DACFBC
:100028002DF0F3CF2EF0F4CF2FF0F6CF30F0F7CF3E
:1000380031F0F8CF32F0F5CF33F05EC034F05FC066
:1000480035F060C036F061C037F0A1AC03D0A19C98
:100058008BEC09F0B8A007D0B89020EC0AF04AEC75
:100068000CF00F0104859EA212D09E923C4A3D2AB4
:100078003DBE0CD0B80E3C5C0B0E3D58D8A006D047
:100088000B0E3D6EB80E3C6ECA9401D0CA846AEC61
:100098000AF0F2A419D0F2940001A54BA62B000196
:1000A800A6BF08D00001A65107E1020E0001A55D18
:1000B800D8B002D0D58E08D0000E0001A66F000E71
:1000C800A56F90EC00F0D59E37C061F036C060F0A7
:1000D80035C05FF034C05EF033C0F5FF32C0F8FFC2
:1000E80031C0F7FF30C0F6FF2FC0F4FF2EC0F3FF7A
:1000F8002DC0DAFF2CC0D9FF2BC0E2FF2AC0E1FFD8
:1001080029C0EAFF28C0E9FF27C0FBFF26C0FAFF85
:100118005E92110043EF0BF00001A9510001AA11F2
:10012800D8B423D0000E0001AA6F000EA96F83B8BF
:100138001CD0010E461A0001F2510001F311D8B487
:100148000BD046504710D8A402D08C8601D08C968C
:1001580046A005D08A8A04D08C9646B0FBD78A9AE6
:1001680046A002D08C8401D08C940001A7510001D4
:10017800A811D8B408D0000E0001A86F000EA76F10
:1001880084A62BEC06F04E504F10D8B420D0000EA9
:100198004F6E000E4E6E86B21AD03E503F10D8A455
:1001A8000FD0564A572A57BE12D0575004E1040EB2
:1001B800565CD8A00CD0000E576E010E566E07D0B4
:1001C800010E00018F1B000E516E010E506E4C5037
:1001D8004D10D8B420D0000E4D6E000E4C6E86B473
:1001E8001AD03E503F10D8A40FD0544A552A55BEB5
:1001F80012D0555004E1040E545CD8A00CD0000E67
:10020800556E010E546E07D0010E00018D1B000EB5
:10021800516E010E506E4A504B10D8B420D0000ECB
:100228004B6E000E4A6E84BC1AD03E503F10D8A4C4
:100238000FD0524A532A53BE12D0535004E1040E31
:10024800525CD8A00CD0000E536E010E526E07D02F
:10025800010E00018B1B000E516E010E506E000145
:100268008F5100019011D8B405D0000E216E000EF8
:10027800206E04D056C020F057C021F000018D51E7
:1002880000018E11D8B405D0000E236E000E226E28
:1002980004D054C022F055C023F000018B51000156
:1002A8008C11D8B405D0000E256E000E246E04D033
:1002B80052C024F053C025F020C001F021C002F044
:1002C80022C003F023C004F024C005F025C006F0C6
:1002D800FBEC0AF048504910D8B44CD0000E496ED7
:1002E800000E486E83B246D03E503F10D8A41AD0B4
:1002F8000001A14BA22B0001A2BF0DD00001A25109
:1003080005E1060E0001A15DD8A005D0000E000190
:10031800A26F000EA16FA1C001F0A2C002F00EEC06
:100328000CF028D042504310D8A416D0A1C044F0F5
:10033800A2C045F044504510D8A404D0000E456E24
:10034800010E446E000E436E010E426E45BE12D081
:1003580045500CE1020E07D0444A452A45BE0AD052
:10036800455004E1060E445CD8A004D0000E456E4A
:10037800010E446E0001AB510001AC11D8B412005B
:10038800000E0001AC6F000EAB6F3E503F10D8A4BA
:100398000BD086B61200000E3F6E010E3E6E0F01A6
:1003A800559F0F01568F120086A61200000E3F6E51
:1003B800000E3E6E0F01558F0F01569F5050511081
:1003C800D8A410D0010E5C1A5CC0F2F05DC0F3F046
:1003D8005C505D10D8B403D08D82909212008D923B
:1003E80090821200000E436E000E426E000E516E97
:1003F800000E506E44C0A1F045C0A2F0000E0001EE
:100408009A6F000E996F000E00019C6F000E9B6F93
:10041800000E0001A06F010E9F6FA1C001F0A2C0E5
:1004280002F00EEC0CF01200000E0001CB6F000E73
:100438000001CC6F000E0001CD6F64C0CEF065C026
:10044800CFF066C0D0F0D2EC07F00001D8B009D0E8
:1004580083AE02D0010E01D0000E00016B6F6C6BF1
:1004680005D0000E00016C6F000E6B6F000E0001CE
:10047800CC6F0E0ECB6FC2EC06F0CBC07FF0CCC0B9
:1004880080F06BC0D4F06CC0D5F0060ED890000197
:10049800D437D537E82EFAD78FC0D6F090C0D7F02A
:1004A800070ED8900001D637D737E82EFAD780C084
:1004B800D8F00001D96BD8BFD9690001D651000125
:1004C800D8130001D7510001D9130001D4510001FC
:1004D800D8110001AD6F0001D5510001D9110001FB
:1004E800AE6F00017F510001AF6FB06B000E0001CD
:1004F800CC6F040ECB6FC2EC06F0CBC083F0CCC03F
:1005080084F083C0D4F084C0D5F0040E0001D66F07
:100518000001D535D533D4330001D62FF9D7D4C04F
:10052800B1F0D5C0B2F0000E0001CC6F030ECB6F56
:10053800C2EC06F0CBC081F0CCC082F081C0D4F010
:1005480082C0D5F0040E0001D66F0001D535D53331
:10055800D4330001D62FF9D7D4C0B3F0D5C0B4F046
:10056800000E0001CC6F060ECB6FC2EC06F0CBC0BC
:1005780079F0CCC07AF08DC0D4F08EC0D5F0070EDB
:10058800D8900001D437D537E82EFAD77AC0D6F0FC
:100598000001D76BD6BFD7690001D4510001D6112D
:1005A8000001B56F0001D5510001D7110001B66FE8
:1005B800000179510001B76FB86B000E0001CC6FD4
:1005C800020ECB6FC2EC06F0CBC07DF0CCC07EF043
:1005D8007DC0D4F07EC0D5F0040E0001D66F0001B6
:1005E800D535D533D4330001D62FF9D7D4C0B9F0D7
:1005F800D5C0BAF0000E0001CC6F090ECB6FC2EC6B
:1006080006F0CBC07BF0CCC07CF07BC0D4F07CC0C3
:10061800D5F0040E0001D66F0001D535D533D4339B
:100628000001D62FF9D7D4C0BBF0D5C0BCF0000E5E
:100638000001CC6F010ECB6FC2EC06F0CBC073F09B
:10064800CCC074F08BC0D4F08CC0D5F0070ED89015
:100658000001D437D537E82EFAD774C0D6F0000198
:10066800D76BD6BFD7690001D4510001D61100015C
:10067800BD6F0001D5510001D7110001BE6F000107
:1006880073510001BF6FC06B000E0001CC6F050EE7
:10069800CB6FC2EC06F0CBC077F0CCC078F077C057
:1006A800D4F078C0D5F0040E0001D66F0001D5351E
:1006B800D533D4330001D62FF9D7D4C0C1F0D5C073
:1006C800C2F0000E0001CC6F000ECB6FC2EC06F03A
:1006D800CBC075F0CCC076F075C0D4F076C0D5F03C
:1006E800040E0001D66F0001D535D533D43300018F
:1006F800D62FF9D7D4C0C3F0D5C0C4F064C0C5F0B4
:100708000001C66B65C0C7F00001C86B66C0C9F0C0
:100718000001CA6B12008C80040E0001CC6F0C0E15
:100728000001CB6F330EE82EFED7CB2FFCD7CC2F92
:10073800FAD700D08D8E040E0001CC6F0C0E00018C
:10074800CB6F330EE82EFED7CB2FFCD7CC2FFAD7A2
:1007580000D08D8A040E0001CC6F0C0E0001CB6F07
:10076800330EE82EFED7CB2FFCD7CC2FFAD700D0EC
:100778008D88040E0001CC6F0C0E0001CB6F330E78
:10078800E82EFED7CB2FFCD7CC2FFAD700D09084F9
:10079800040E0001CC6F0C0E0001CB6F330EE82E57
:1007A800FED7CB2FFCD7CC2FFAD700D09094040ECD
:1007B8000001CC6F0C0E0001CB6F330EE82EFED774
:1007C800CB2FFCD7CC2FFAD700D08D98040E000180
:1007D800CC6F0C0E0001CB6F330EE82EFED7CB2F5B
:1007E800FCD7CC2FFAD700D08D9A040E0001CC6F1D
:1007F8000C0E0001CB6F330EE82EFED7CB2FFCD7A3
:10080800CC2FFAD700D08D9E040E0001CC6F0C0EB1
:100818000001CB6F330EE82EFED7CB2FFCD7CC2FA1
:10082800FAD700D08C90040E0001CC6F0C0E00019A
:10083800CB6F330EE82EFED7CB2FFCD7CC2FFAD7B1
:1008480000D0908E040E0001CC6F0C0E0001CB6F0F
:10085800330EE82EFED7CB2FFCD7CC2FFAD700D0FB
:100868008E84040E0001CC6F0C0E0001CB6F330E8A
:10087800E82EFED7CB2FFCD7CC2FFAD700D08E8A04
:10088800040E0001CC6F0C0E0001CB6F330EE82E66
:10089800FED7CB2FFCD7CC2FFAD700D08E8C040EE6
:1008A8000001CC6F0C0E0001CB6F330EE82EFED783
:1008B800CB2FFCD7CC2FFAD700D08F88040E00019D
:1008C800CC6F0C0E0001CB6F330EE82EFED7CB2F6A
:1008D800FCD7CC2FFAD700D09080040E0001CC6F43
:1008E8000C0E0001CB6F330EE82EFED7CB2FFCD7B2
:1008F800CC2FFAD700D0909E040E0001CC6F0C0EBE
:100908000001CB6F330EE82EFED7CB2FFCD7CC2FB0
:10091800FAD700D08E94040E0001CC6F0C0E0001A3
:10092800CB6F330EE82EFED7CB2FFCD7CC2FFAD7C0
:1009380000D08E9A040E0001CC6F0C0E0001CB6F14
:10094800330EE82EFED7CB2FFCD7CC2FFAD700D00A
:100958008E9C040E0001CC6F0C0E0001CB6F330E81
:10096800E82EFED7CB2FFCD7CC2FFAD700D08F9804
:10097800040E0001CC6F0C0E0001CB6F330EE82E75
:10098800FED7CB2FFCD7CC2FFAD700D09090040EEF
:100998000001CC6F0C0E0001CB6F330EE82EFED792
:1009A800CB2FFCD7CC2FFAD700D01200000E0001B5
:1009B800E76F000EE66F000E0001E36F000EE26FB6
:1009C800000E0001E56F000EE46FC9EC0CF08AEC34
:1009D8000BF00F010485000E0EEC0DF000019F5185
:1009E8000001A011D8B428D0FF0E0001A1250001F4
:1009F800CB6FFF0E0001A2210001CC6FAD0E0001EC
:100A0800CD6F000E0001CE6F000E0001D06F0C0EEE
:100A1800CF6F36EC08F0A1C0D1F0A2C0D2F0AD0E75
:100A28000001D36F000E0001D46FECEC08F0000E4B
:100A38000001A06F000E9F6F0001A2BF0ED0000141
:100A4800A25104E10001A105D8A007D0A1C0D1F0AE
:100A5800A2C0D2F0D6EC09F051D018EC02F0000E8A
:100A68000001CC6F080ECB6FC2EC06F0CBC0E6F0ED
:100A7800CCC0E7F0E6C0DFF0E7C0E0F0050E00010B
:100A8800E16F0001E035E033DF330001E12FF9D7F2
:100A9800DFC0E6F0E0C0E7F0E2C0DFF0E3C0E0F07E
:100AA8000001DF1FE01FDF4BE02B0001E6510001D2
:100AB800DF250001E46F0001E7510001E02100019A
:100AC800E56FE4C0CBF0E5C0CCF09AEC0DF0CBC0FC
:100AD800E4F0CCC0E5F00001E5BF10D00001E5511D
:100AE80005E1020E0001E45DD8A008D00001E6513E
:100AF8000EEC0DF0E6C0E2F0E7C0E3F0000169514A
:100B080000016A11D8A46AD7000E00016A6F010EAD
:100B1800696F64D7A00E0001D56F0001D551010996
:100B28000001D36FD8900001CB35D96E0001CC35C8
:100B3800DA6EE80ED926000EDA22DF500001D46FF3
:100B4800000E0001D76F000ED66FC68A0D0EE82E74
:100B5800FED700F0C580C5B0FED79EA6FED79E96EC
:100B6800D5C0C9FFC5509EA6FED79E96D4C0C9FF62
:100B7800C5BCFED79EA6FED79E96C582C5B2FED737
:100B88009EA6FED79E96D3C0C9FFC5BCFED79EA61B
:100B9800FED79E96C586C7A0FED79EA6FED7C9508B
:100BA8000001D16FD26BD8900001D635D96E000103
:100BB800D735DA6E0001CD51D9260001CE51DA229F
:100BC800D1C0DEFFD2C0DDFF000E0001D76F010EDD
:100BD800D66F22D0C59AC588C5B8FED79E96C58659
:100BE800C7A0FED79EA6FED7C9500001D16FD26B11
:100BF800D8900001D635D96E0001D735DA6E0001DC
:100C0800CD51D9260001CE51DA22D1C0DEFFD2C0A3
:100C1800DDFF0001D64BD72B0001CF510001D65D77
:100C28000001D751800A0001D16F0001D051800A1C
:100C38000001D159D8A0CED7C58AC588C5B8FED776
:100C48009E96C584C5B4FED79E96C68A1200000E2D
:100C58001F6E000E1E6E39BE05D0395014E13804DF
:100C6800D8B011D0CA84000E0001606F000E616F09
:100C7800000E626F000E636F000E3B6E000E3A6E40
:100C8800384A392A76D0CA94000E0001986F010EAE
:100C9800976F000E416E000E406E8D8039BE06D0F3
:100CA800395011E1020E385CD8B00DD03CC058F074
:100CB8003DC059F03CC03AF03DC03BF0384A392AB3
:100CC800A2EC0CF03BD03AC01CF03BC01DF01C1E3F
:100CD8001D1E1C4A1D2A3C501C241E6E3D501D2002
:100CE8001F6E1EC001F01FC002F0B0EC0DF001C075
:100CF8001EF002C01FF01FBE0BD0F40E1E5C010ECA
:100D08001F58D8A005D0000E396E010E386E16D0C7
:100D18003A503C24016E3B503D20026E000E046E9A
:100D2800020E036ECCEC0BF001C058F002C059F073
:100D38003CC03AF03DC03BF0384A392A58C009F067
:100D480059C00AF04BEC0DF009C00DF00AC00EF0C6
:100D58000BC00FF0120E106E830E116E3F0E126E46
:100D680058EC07F00DC064F00EC065F00FC066F0D7
:100D7800CA84000E3D6E000E3C6E12000E018651B4
:100D88000001CB19E00BCB190E01866FA00E00D025
:100D9800E82EFDD7C18EC082A00E00D0E82EFDD768
:100DA800C092C0A0FED7C19E0001CB510001CC115A
:100DB800D8A405D0C2CFCDF0C3CFCEF070D00001FB
:100DC800CB050001CC11D8A405D048CECDF049CE32
:100DD800CEF065D0020E0001CB190001CC11D8A4C9
:100DE80005D04ACECDF04BCECEF059D0030E00013F
:100DF800CB190001CC11D8A405D04CCECDF04DCEE6
:100E0800CEF04DD0040E0001CB190001CC11D8A4AE
:100E180005D04ECECDF04FCECEF041D0050E00011C
:100E2800CB190001CC11D8A405D050CECDF051CEAD
:100E3800CEF035D0060E0001CB190001CC11D8A494
:100E480005D052CECDF053CECEF029D00E0E0001F3
:100E5800CB190001CC11D8A405D062CECDF063CE59
:100E6800CEF01DD0080E0001CB190001CC11D8A47A
:100E780005D056CECDF057CECEF011D0090E0001D8
:100E8800CB190001CC11D8A405D058CECDF059CE3D
:100E9800CEF005D0000E0001CE6F000ECD6FCDC094
:100EA800CBF0CEC0CCF012000FC013F0146A156A54
:100EB8000E34133601E314801350166E1650D8A45E
:100EC80007D0000E0D6E000E0E6E000E0F6E120093
:100ED80012C013F0146A156A1134133601E3148032
:100EE80013501B6E1B50D8A407D0000E0D6E000EB9
:100EF8000E6E000E0F6E12001B507B0F16260FC0D1
:100F08001BF012501B1A800E1B160E8E118EFF0E30
:100F18001016FF0E1116000E1216000E176E000E98
:100F2800186E000E196E070E1A6E0DA006D010501E
:100F380017261150182212501922D8900F320E324B
:100F48000D32D8901036113612361A2EEED7090EF9
:100F58001A6E0DA006D010501726115018221250E4
:100F68001922D8900F320E320D32D8901932183219
:100F780017321A2EEED717C001F018C002F019C0A8
:100F880003F016C004F01BC005F095EC08F001C092
:100F98000DF002C00EF003C00FF012000001CDAF3B
:100FA8001DD0CBC0D1F0CCC0D2F0CDC0D3F0000161
:100FB800D11FD21FD31FD12B000ED223D323000E53
:100FC8000001D1250001CB6F000E0001D2210001E4
:100FD800CC6F800E0001D3210001CD6F0001D0AF8E
:100FE8001DD0CEC0D1F0CFC0D2F0D0C0D3F0000118
:100FF800D11FD21FD31FD12B000ED223D323000E13
:101008000001D1250001CE6F000E0001D2210001A0
:10101800CF6F800E0001D3210001D06F000E0001B8
:10102800CB1B000E0001CC1B800E0001CD1B000E57
:101038000001CE1B000E0001CF1B800E0001D01B4B
:101048000001CE510001CB5D0001CF510001CC5908
:101058000001D0510001CD59D8B002D0D89012006B
:10106800D8801200A00E0001D26FD8900001CB35B5
:10107800D96E0001CC35DA6EE80ED926000EDA22D8
:10108800DF500001D36F000E0001D56F000ED46F42
:10109800C68A0D0EE82EFED700F0C580C5B0FED773
:1010A8009E96D2C0C9FFC5BCFED79EA6FED79E9607
:1010B800D3C0C9FF000E0001D56F000ED46F17D042
:1010C800C5BCFED79EA6FED79E96D8900001D43503
:1010D800D96E0001D535DA6E0001CD51D92600014F
:1010E800CE51DA22DF50C96E0001D44BD52B000156
:1010F800CF510001D45D0001D551800A0001D16FA4
:101108000001D051800A0001D159D8A0D9D7C5BC57
:10111800FED79EA6FED7C584C5B4FED79E96C68ABE
:1011280012000450D8B405D0015002100310D8A4FE
:101138000CD0000E016E000E026E000E036E12003F
:10114800042AD890033202320132000E0114066ECE
:10115800000E0214076EFE0E0314086E06500710E8
:101168000810D8B40CD0ECD7042A010E0126000EC2
:101178000222000E0322D890033202320132000EFE
:101188000114066E000E0214076EFF0E0314086E9B
:10119800065007100810D8B406D0E6D70406D89031
:1011A80001360236033602BE03D0020E0460F6D7BB
:1011B80004A0029ED8900432045003120550D8A40B
:1011C800038E01C001F002C002F003C003F0120058
:1011D800000E0001DA6F000ED96F0001DABF08D0E7
:1011E8000001DA5144E10C0E0001D95DD8B01200BB
:1011F800D8900001D935D96E0001DA35DA6E0001D0
:10120800D351D9260001D451DA22DECFD7F0DDCF71
:10121800D8F0D1C0CBF0D2C0CCF0000E0001CE6F18
:10122800180ECD6F67EC0DF0000E0001D56F010EA2
:101238000001D66F0001CB510001D5270001CC5128
:101248000001D623D8900001D935D96E0001DA35CE
:10125800DA6E0001D551D9260001D651DA22D7C05D
:10126800DEFFD8C0DDFF0001D94BDA2BB6D712005C
:101278000E01E38F75966692CD96B1960F0114977D
:101288000E01469998820F0154890E01469B988455
:10129800968C95820F01548F0E01469D98860F01FA
:1012A800548D958896869690959496920E014593BE
:1012B80099929590969E969A96980E01459599942E
:1012C8000E01479D97940E01459F999E0E014695E4
:1012D800979C0E014693979A0E014591999098987C
:1012E8000E01469F948E9A889A8A94829480948C50
:1012F8000E01459B0E0145999786998A9988939A7C
:1013080095968A8A8C969A809A82958E1200000EFB
:10131800046E000E036E03CF87F00001886B000E89
:10132800046E000E036E04BE03D0045035E130D0C5
:10133800D8900334D96E0434DA6E900ED926010E93
:10134800DA2200018751DE181DE100018851DE18FC
:10135800D8A418D00F0E03180410D8A405D069C05B
:1013680085F06AC086F018D0D8900334D96E04345A
:10137800DA6EAD0ED926000EDA22DECF85F0DDCF8B
:1013880086F00AD0034A042A04BED2D7045004E1E6
:101398000F0E035CD8A0CCD785C003FF0F011989B5
:1013A800A19C1200000E0001D66F000ED56F00013F
:1013B800D6BF08D00001D6513EE10C0E0001D55D24
:1013C800D8B01200D1C0CBF0D2C0CCF0000E0001D2
:1013D800CE6F180ECD6F67EC0DF0000E0001D36FC5
:1013E800010E0001D46F0001CB510001D327000189
:1013F800CC510001D423D8900001D535D96E000115
:10140800D635DA6E0001D351D9260001D451DA223B
:10141800D8900001D535E16E0001D635E26EAD0EEB
:10142800E126000EE222DECFE6FFDDCFE5FF000178
:10143800D54BD62BBCD712000001645100016511B1
:1014480000016611D8A402D08D90120000019751B6
:1014580000019811D8B417D0404A412A5A50405C2C
:101468004150800A016E5B50800A0158D8A01200D2
:10147800000E416E000E406E8D90000E0001986FB8
:10148800000E976F1200404A412A5AC001F05BC013
:1014980002F0011E021E014A022A58500126595024
:1014A80002220150405C4150800A036E0250800ABB
:1014B8000358D8A01200000E416E000E406E8D80B9
:1014C800000E0001986F010E976F1200000E016E5A
:1014D800D1A207D0000E496E010E486E010E016EB2
:1014E800D192D1A407D0000E4D6E010E4C6E010EA4
:1014F800016ED194D1A607D0000E4F6E010E4E6E2C
:10150800010E016ED196D1A808D0000E0001AA6F75
:10151800010EA96F010E016ED198D1AA08D0000E54
:101528000001A86F010EA76F010E016ED19AD1AC10
:1015380007D0000E4B6E010E4A6E010E016ED19C53
:10154800D1AE08D0000E0001AC6F010EAB6F010EDA
:10155800016ED19E0150D8B41200D58E1200C19EE2
:10156800C184FC0EC116C098C09AC09CC09EC0948D
:101578003F0E0E018D170E018D9B0E018D870E01FA
:101588008B9F0E018B9B200E0E018A6F0E01899F87
:101598000E01869186938695869786990E01869B7D
:1015A800869D869F0F01539F0F01389F0F01379F1C
:1015B8000E0147810E0147830E0147850E014787BB
:1015C8000E0147890E01478B0E0146870E01478F92
:1015D8000E0146810E01458D9280928292849286F8
:1015E800928A978E9288998C98809484120001042C
:1015F8000210D8A402D0908E10D0020E011802104A
:10160800D8A402D0909E06D0030E01180210D8A4C8
:1016180003D0908E8E8402D0909E8E940304041082
:10162800D8A402D08E8A10D0020E03180410D8A4B1
:1016380002D08E9A06D0030E03180410D8A403D043
:101648008E8A8E8C02D08E9A8E9C05040610D8A4A1
:1016580003D08F8890901200020E05180610D8A4A7
:1016680003D08F9890801200030E05180610D8A496
:1016780003D08F88908012008F98909012005E0E91
:10168800F66E1A0EF76E000EF86E01EE90F010EE80
:1016980038F00900F5CFEEFFE550E150FAE14A0EC7
:1016A800F66E1C0EF76E000EF86E00EEE8F010EE07
:1016B8000CF00900F5CFEEFFE550E150FAE1620EBB
:1016C800F66E1C0EF76E000EF86E00EE58F010EE77
:1016D80006F00900F5CFEEFFE550E150FAE101EE22
:1016E80000F0900EEE6AE806FDE100EE60F06B0E89
:1016F800EE6AE806FDE100EE38F0200EEE6AE80634
:10170800FDE15E905E920001DAEF04F0000E000148
:10171800DC6F000EDB6F000E0001DE6F000EDD6F68
:10172800000E0001DE6F000EDD6F0001DEBF08D085
:101738000001DE512CE1050E0001DD5DD8B012007C
:10174800DDC0CBF0DEC0CCF0780E0001CD6F010E0D
:101758000001CE6F000E0001D06F0C0ECF6F8EEC23
:1017680005F0010E0001DD250001D16F000E00011A
:10177800DE210001D26F780E0001D36F010E000147
:10178800D46FECEC08F00001DD4BDE2BCED7120055
:10179800000E066E04AE06D0036C041ED8B0042AF0
:1017A800010E066E02AE06D0016C021ED8B0022AE7
:1017B800010E061A000E086E000E076E0350041084
:1017C800D8B41CD0010E056E04D0D8900336043668
:1017D800052A04AEFAD7D890073608360350015CBC
:1017E80004500258D8A005D00350015E0450025A94
:1017F8000780D89004320332052EEDD70650D8B4AE
:1018080004D0076C081ED8B0082A07C001F008C029
:1018180002F0120001040210D8A406D08C808D9E1C
:101828008D9A8D9890941200020E01180210D8A477
:1018380006D08C908D8E8D9A8D9890941200030E00
:1018480001180210D8A406D08C908D9E8D8A8D9890
:1018580090941200040E01180210D8A406D08C909F
:101868008D9E8D9A8D8890941200050E0118021095
:10187800D8A406D08C908D9E8D9A8D989084120055
:101888008C908D9E8D9A8D989094120042504310A2
:10189800D8B4120000019B4B9C2B00019CBF120086
:1018A80000019C5105E1970E00019B5DD8A0120034
:1018B8000001995100019A11D8B407D044C001F031
:1018C80045C002F00EEC0CF006D0000E026E000EC1
:1018D800016E0EEC0CF0010E0001991B000E0001C8
:1018E8009C6F000E9B6F1200D3505F0BD36E0E01DE
:1018F80034510F0B9009346F0E013451F00B0A0963
:10190800346F0E013651F00B0809366F0E01335152
:101918000F0B5009336F0E0136510F0BA009366FAC
:101928000E013551F00B0609356F0E0135510F0BBD
:101938008009356FD3504009D36E12003DBE0FD0D9
:10194800B90E3C5C0B0E3D58D8A009D0000E3D6E78
:10195800000E3C6E000E396E000E386E12003DBE51
:101968001200FC0E3C5C040E3D58D8A01200000E7C
:101978000001706F010E6F6F000E396E000E386E29
:10198800040E596EFC0E586E1200C4EC0DF0F3EC08
:101998000DF01EEC0EF016EC0EF00BEC0EF0E6EC73
:1019A8000DF0ECEC0CF0B3EC0AF078EC0CF03CEC3D
:1019B80009F02BEC0EF0D6EC0DF08FEC03F0FFECF9
:1019C8000DF0D6EC0DF02BEC0EF082EC0DF01200C1
:1019D8000F01199B958A958C0F011951F00B090974
:1019E800196FA00E0F01026FC00E0F01176F0F01C4
:1019F8001951F00B0609196F0F0119890F01188188
:101A08000F01189F0F01399B000E0F01036F0F0183
:101A1800198B12000001CB6F5E0E0001CC6FC68AD5
:101A28000D0EE82EFED700F0C580C5B0FED79E96F5
:101A3800CCC0C9FFC5BCFED79EA6FED79E96CBC01C
:101A4800C9FFC5BCFED79EA6FED7C584C5B4FED7C0
:101A58009E96C68A1200A100A300A500A700A900AF
:101A6800AB00AD00AF00B100B300B500B700B900DE
:101A7800BB00BD00BF000000FF007F007F0000002A
:101A88000000000000000000000000000000000E40
:101A98000C6E0AAE06D0096C0A1ED8B00A2A010ECE
:101AA8000C6E09C001F00AC002F0036A8E0E046EC3
:101AB8000CC005F095EC08F001C009F002C00AF06E
:101AC80003C00BF012000001CB510001CD03F3CF8E
:101AD800CFF0F4CFD0F00001CB510001CE03F3508A
:101AE8000001D0270001CC510001CD03F3500001C3
:101AF800D027CFC0CBF0D0C0CCF01200F28A9D80A6
:101B08009D82A082B780A08CF2860F0155830F01B9
:101B180055850F0155870F0155890F01558B0F0109
:101B2800558D0F01558FF28CF28E12000001CCAF4B
:101B38000ED0CBC0CDF0CCC0CEF00001CD1FCE1F53
:101B4800CD4BCE2BCDC0CBF0CEC0CCF01200CBC04D
:101B5800CBF0CCC0CCF0120002AE0DD001C003F027
:101B680002C004F0031E041E034A042A03C001F045
:101B780004C002F0120001C001F002C002F012001D
:101B8800648A6550F80B0109656E669ED350F80BA0
:101B98000109D36ED338070BE806D8A4FBD766BA79
:101BA8001200FDD78D908C94909E8E948E9A8E9C68
:101BB8008F9890908D9290928C908D9E8D9A8D9802
:101BC80090941200C69A94869488130EC86EC650D4
:101BD800F00B0809C66E000EC96EC68A1200D59EA3
:101BE800D58CD550CF0B1009D56ED596D550F80B9E
:101BF8000609D56E1200908E8E848E8A8E8C8F8800
:101C080090808C808D8E8D8A8D88908412000F0133
:101C18000495030E0F0104130F010451870B0809E3
:101C2800046F1200CA94030ECA12CA50870B08091F
:101C3800CA6E1200CD903F0ECD16300ECD12CD8259
:101C480012000000100020003000400001008A8AC5
:101C58008C868D8290928C941200F401050001000C
:107FF00080F607FE13F0FFF7DBFFFFFC01F0F8F25D
:00000001FF
